{
  "address": "0x6560c5AE3332bD6A036F48239a1D90BA3f51872a",
  "abi": [
    {
      "inputs": [
        {
          "internalType": "contract ILBRouter",
          "name": "joeRouter_",
          "type": "address"
        },
        {
          "internalType": "address",
          "name": "native_",
          "type": "address"
        },
        {
          "internalType": "uint256",
          "name": "maxSupply_",
          "type": "uint256"
        },
        {
          "internalType": "uint256",
          "name": "_xPerBin",
          "type": "uint256"
        },
        {
          "internalType": "address",
          "name": "devWallet_",
          "type": "address"
        },
        {
          "internalType": "address",
          "name": "founderWallet_",
          "type": "address"
        }
      ],
      "stateMutability": "nonpayable",
      "type": "constructor"
    },
    {
      "inputs": [],
      "name": "Uint256x256Math__MulDivOverflow",
      "type": "error"
    },
    {
      "anonymous": false,
      "inputs": [
        {
          "indexed": true,
          "internalType": "address",
          "name": "owner",
          "type": "address"
        },
        {
          "indexed": true,
          "internalType": "address",
          "name": "spender",
          "type": "address"
        },
        {
          "indexed": false,
          "internalType": "uint256",
          "name": "amount",
          "type": "uint256"
        }
      ],
      "name": "Approval",
      "type": "event"
    },
    {
      "anonymous": false,
      "inputs": [
        {
          "indexed": true,
          "internalType": "address",
          "name": "previousOwner",
          "type": "address"
        },
        {
          "indexed": true,
          "internalType": "address",
          "name": "newOwner",
          "type": "address"
        }
      ],
      "name": "OwnershipTransferred",
      "type": "event"
    },
    {
      "anonymous": false,
      "inputs": [
        {
          "indexed": true,
          "internalType": "address",
          "name": "from",
          "type": "address"
        },
        {
          "indexed": true,
          "internalType": "address",
          "name": "to",
          "type": "address"
        },
        {
          "indexed": false,
          "internalType": "uint256",
          "name": "amount",
          "type": "uint256"
        }
      ],
      "name": "Transfer",
      "type": "event"
    },
    {
      "inputs": [],
      "name": "DOMAIN_SEPARATOR",
      "outputs": [
        {
          "internalType": "bytes32",
          "name": "",
          "type": "bytes32"
        }
      ],
      "stateMutability": "view",
      "type": "function"
    },
    {
      "inputs": [],
      "name": "NATIVE",
      "outputs": [
        {
          "internalType": "address",
          "name": "",
          "type": "address"
        }
      ],
      "stateMutability": "view",
      "type": "function"
    },
    {
      "inputs": [
        {
          "internalType": "address",
          "name": "",
          "type": "address"
        },
        {
          "internalType": "address",
          "name": "",
          "type": "address"
        }
      ],
      "name": "allowance",
      "outputs": [
        {
          "internalType": "uint256",
          "name": "",
          "type": "uint256"
        }
      ],
      "stateMutability": "view",
      "type": "function"
    },
    {
      "inputs": [],
      "name": "approvals",
      "outputs": [],
      "stateMutability": "nonpayable",
      "type": "function"
    },
    {
      "inputs": [
        {
          "internalType": "address",
          "name": "spender",
          "type": "address"
        },
        {
          "internalType": "uint256",
          "name": "amount",
          "type": "uint256"
        }
      ],
      "name": "approve",
      "outputs": [
        {
          "internalType": "bool",
          "name": "",
          "type": "bool"
        }
      ],
      "stateMutability": "nonpayable",
      "type": "function"
    },
    {
      "inputs": [
        {
          "internalType": "address",
          "name": "",
          "type": "address"
        }
      ],
      "name": "balanceOf",
      "outputs": [
        {
          "internalType": "uint256",
          "name": "",
          "type": "uint256"
        }
      ],
      "stateMutability": "view",
      "type": "function"
    },
    {
      "inputs": [],
      "name": "binStep",
      "outputs": [
        {
          "internalType": "uint16",
          "name": "",
          "type": "uint16"
        }
      ],
      "stateMutability": "view",
      "type": "function"
    },
    {
      "inputs": [
        {
          "internalType": "address",
          "name": "",
          "type": "address"
        }
      ],
      "name": "blacklist",
      "outputs": [
        {
          "internalType": "bool",
          "name": "",
          "type": "bool"
        }
      ],
      "stateMutability": "view",
      "type": "function"
    },
    {
      "inputs": [
        {
          "internalType": "uint256",
          "name": "amount",
          "type": "uint256"
        },
        {
          "internalType": "uint256",
          "name": "pct",
          "type": "uint256"
        }
      ],
      "name": "calculateFee",
      "outputs": [
        {
          "internalType": "uint256",
          "name": "",
          "type": "uint256"
        }
      ],
      "stateMutability": "pure",
      "type": "function"
    },
    {
      "inputs": [],
      "name": "decimals",
      "outputs": [
        {
          "internalType": "uint8",
          "name": "",
          "type": "uint8"
        }
      ],
      "stateMutability": "view",
      "type": "function"
    },
    {
      "inputs": [
        {
          "internalType": "bool",
          "name": "rebalances",
          "type": "bool"
        },
        {
          "internalType": "bool",
          "name": "fees",
          "type": "bool"
        }
      ],
      "name": "disableRebalances",
      "outputs": [],
      "stateMutability": "nonpayable",
      "type": "function"
    },
    {
      "inputs": [],
      "name": "feeReceiver",
      "outputs": [
        {
          "internalType": "address",
          "name": "",
          "type": "address"
        }
      ],
      "stateMutability": "view",
      "type": "function"
    },
    {
      "inputs": [],
      "name": "feesEnabled",
      "outputs": [
        {
          "internalType": "bool",
          "name": "",
          "type": "bool"
        }
      ],
      "stateMutability": "view",
      "type": "function"
    },
    {
      "inputs": [],
      "name": "floorLiquidityBin",
      "outputs": [
        {
          "internalType": "uint24",
          "name": "",
          "type": "uint24"
        }
      ],
      "stateMutability": "view",
      "type": "function"
    },
    {
      "inputs": [],
      "name": "getActiveBinId",
      "outputs": [
        {
          "internalType": "uint24",
          "name": "",
          "type": "uint24"
        }
      ],
      "stateMutability": "view",
      "type": "function"
    },
    {
      "inputs": [
        {
          "internalType": "uint256",
          "name": "totalETH",
          "type": "uint256"
        },
        {
          "internalType": "uint256",
          "name": "totalTokens",
          "type": "uint256"
        }
      ],
      "name": "getAverageTokenPrice",
      "outputs": [
        {
          "internalType": "uint256",
          "name": "",
          "type": "uint256"
        }
      ],
      "stateMutability": "pure",
      "type": "function"
    },
    {
      "inputs": [],
      "name": "getFloorPrice",
      "outputs": [
        {
          "internalType": "uint256",
          "name": "",
          "type": "uint256"
        }
      ],
      "stateMutability": "view",
      "type": "function"
    },
    {
      "inputs": [
        {
          "internalType": "address",
          "name": "pair_",
          "type": "address"
        },
        {
          "internalType": "int256[]",
          "name": "deltaIds",
          "type": "int256[]"
        },
        {
          "internalType": "uint256[]",
          "name": "distributionX",
          "type": "uint256[]"
        },
        {
          "internalType": "uint256[]",
          "name": "distributionY",
          "type": "uint256[]"
        },
        {
          "internalType": "address",
          "name": "_vault",
          "type": "address"
        }
      ],
      "name": "initialize",
      "outputs": [],
      "stateMutability": "payable",
      "type": "function"
    },
    {
      "inputs": [],
      "name": "joeRouter",
      "outputs": [
        {
          "internalType": "contract ILBRouter",
          "name": "",
          "type": "address"
        }
      ],
      "stateMutability": "view",
      "type": "function"
    },
    {
      "inputs": [],
      "name": "lastRecordedActiveBin",
      "outputs": [
        {
          "internalType": "uint256",
          "name": "",
          "type": "uint256"
        }
      ],
      "stateMutability": "view",
      "type": "function"
    },
    {
      "inputs": [],
      "name": "maxBin",
      "outputs": [
        {
          "internalType": "uint24",
          "name": "",
          "type": "uint24"
        }
      ],
      "stateMutability": "view",
      "type": "function"
    },
    {
      "inputs": [],
      "name": "maxSupply",
      "outputs": [
        {
          "internalType": "uint256",
          "name": "",
          "type": "uint256"
        }
      ],
      "stateMutability": "view",
      "type": "function"
    },
    {
      "inputs": [],
      "name": "name",
      "outputs": [
        {
          "internalType": "string",
          "name": "",
          "type": "string"
        }
      ],
      "stateMutability": "view",
      "type": "function"
    },
    {
      "inputs": [
        {
          "internalType": "address",
          "name": "",
          "type": "address"
        }
      ],
      "name": "nonces",
      "outputs": [
        {
          "internalType": "uint256",
          "name": "",
          "type": "uint256"
        }
      ],
      "stateMutability": "view",
      "type": "function"
    },
    {
      "inputs": [],
      "name": "openTrading",
      "outputs": [],
      "stateMutability": "nonpayable",
      "type": "function"
    },
    {
      "inputs": [],
      "name": "owner",
      "outputs": [
        {
          "internalType": "address",
          "name": "",
          "type": "address"
        }
      ],
      "stateMutability": "view",
      "type": "function"
    },
    {
      "inputs": [],
      "name": "pair",
      "outputs": [
        {
          "internalType": "contract ILBPair",
          "name": "",
          "type": "address"
        }
      ],
      "stateMutability": "view",
      "type": "function"
    },
    {
      "inputs": [
        {
          "internalType": "address",
          "name": "owner",
          "type": "address"
        },
        {
          "internalType": "address",
          "name": "spender",
          "type": "address"
        },
        {
          "internalType": "uint256",
          "name": "value",
          "type": "uint256"
        },
        {
          "internalType": "uint256",
          "name": "deadline",
          "type": "uint256"
        },
        {
          "internalType": "uint8",
          "name": "v",
          "type": "uint8"
        },
        {
          "internalType": "bytes32",
          "name": "r",
          "type": "bytes32"
        },
        {
          "internalType": "bytes32",
          "name": "s",
          "type": "bytes32"
        }
      ],
      "name": "permit",
      "outputs": [],
      "stateMutability": "nonpayable",
      "type": "function"
    },
    {
      "inputs": [],
      "name": "punishFloorSellers",
      "outputs": [],
      "stateMutability": "nonpayable",
      "type": "function"
    },
    {
      "inputs": [],
      "name": "rebalanceLiquidity",
      "outputs": [],
      "stateMutability": "nonpayable",
      "type": "function"
    },
    {
      "inputs": [],
      "name": "rebalancesEnabled",
      "outputs": [
        {
          "internalType": "bool",
          "name": "",
          "type": "bool"
        }
      ],
      "stateMutability": "view",
      "type": "function"
    },
    {
      "inputs": [],
      "name": "renounceOwnership",
      "outputs": [],
      "stateMutability": "nonpayable",
      "type": "function"
    },
    {
      "inputs": [],
      "name": "seedLiquidityTimes",
      "outputs": [
        {
          "internalType": "uint24",
          "name": "",
          "type": "uint24"
        }
      ],
      "stateMutability": "view",
      "type": "function"
    },
    {
      "inputs": [
        {
          "internalType": "address",
          "name": "newVault",
          "type": "address"
        }
      ],
      "name": "setNewVault",
      "outputs": [],
      "stateMutability": "nonpayable",
      "type": "function"
    },
    {
      "inputs": [
        {
          "internalType": "uint256",
          "name": "newSlippageTolerance",
          "type": "uint256"
        }
      ],
      "name": "setSlippageToleranceMultiplier",
      "outputs": [],
      "stateMutability": "nonpayable",
      "type": "function"
    },
    {
      "inputs": [],
      "name": "slippageToleranceMultiplier",
      "outputs": [
        {
          "internalType": "uint256",
          "name": "",
          "type": "uint256"
        }
      ],
      "stateMutability": "view",
      "type": "function"
    },
    {
      "inputs": [],
      "name": "stakeFee",
      "outputs": [
        {
          "internalType": "uint256",
          "name": "",
          "type": "uint256"
        }
      ],
      "stateMutability": "view",
      "type": "function"
    },
    {
      "inputs": [],
      "name": "startBin",
      "outputs": [
        {
          "internalType": "uint24",
          "name": "",
          "type": "uint24"
        }
      ],
      "stateMutability": "view",
      "type": "function"
    },
    {
      "inputs": [],
      "name": "symbol",
      "outputs": [
        {
          "internalType": "string",
          "name": "",
          "type": "string"
        }
      ],
      "stateMutability": "view",
      "type": "function"
    },
    {
      "inputs": [],
      "name": "tightLiqBin",
      "outputs": [
        {
          "internalType": "uint24",
          "name": "",
          "type": "uint24"
        }
      ],
      "stateMutability": "view",
      "type": "function"
    },
    {
      "inputs": [],
      "name": "totalSupply",
      "outputs": [
        {
          "internalType": "uint256",
          "name": "",
          "type": "uint256"
        }
      ],
      "stateMutability": "view",
      "type": "function"
    },
    {
      "inputs": [],
      "name": "tradingEnabled",
      "outputs": [
        {
          "internalType": "bool",
          "name": "",
          "type": "bool"
        }
      ],
      "stateMutability": "view",
      "type": "function"
    },
    {
      "inputs": [
        {
          "internalType": "address",
          "name": "to",
          "type": "address"
        },
        {
          "internalType": "uint256",
          "name": "amount",
          "type": "uint256"
        }
      ],
      "name": "transfer",
      "outputs": [
        {
          "internalType": "bool",
          "name": "",
          "type": "bool"
        }
      ],
      "stateMutability": "nonpayable",
      "type": "function"
    },
    {
      "inputs": [
        {
          "internalType": "address",
          "name": "from",
          "type": "address"
        },
        {
          "internalType": "address",
          "name": "to",
          "type": "address"
        },
        {
          "internalType": "uint256",
          "name": "amount",
          "type": "uint256"
        }
      ],
      "name": "transferFrom",
      "outputs": [
        {
          "internalType": "bool",
          "name": "",
          "type": "bool"
        }
      ],
      "stateMutability": "nonpayable",
      "type": "function"
    },
    {
      "inputs": [
        {
          "internalType": "address",
          "name": "newOwner",
          "type": "address"
        }
      ],
      "name": "transferOwnership",
      "outputs": [],
      "stateMutability": "nonpayable",
      "type": "function"
    },
    {
      "inputs": [],
      "name": "vault",
      "outputs": [
        {
          "internalType": "address",
          "name": "",
          "type": "address"
        }
      ],
      "stateMutability": "view",
      "type": "function"
    },
    {
      "inputs": [],
      "name": "xPerBin",
      "outputs": [
        {
          "internalType": "uint256",
          "name": "",
          "type": "uint256"
        }
      ],
      "stateMutability": "view",
      "type": "function"
    },
    {
      "stateMutability": "payable",
      "type": "receive"
    }
  ],
  "transactionHash": "0x2bc35d584c4d664e6f97c0d9f12c0130a780d2f48f2f4e6f5c87d986788ee33d",
  "args": [
    "0xb4315e873dBcf96Ffd0acd8EA43f689D8c20fB30",
    "0x82aF49447D8a07e3bd95BD0d56f35241523fBab1",
    30000000,
    25000,
    "0xfaE14106232e610FA7607a27bDf6d3Fe1D32CdD5",
    "0x5140780e32d84a3ddF2feBE31fFA0741c1a515E1"
  ],
  "numDeployments": 2,
  "solcInputHash": "1ffe8ee147de04a9615007da1a940098",
  "bytecode": "0x6101006040526063600f5560646011553480156200001c57600080fd5b50604051620067433803806200674383398181016040528101906200004291906200099d565b6040518060400160405280600681526020017f4c414444455200000000000000000000000000000000000000000000000000008152506040518060400160405280600681526020017f4c4144444552000000000000000000000000000000000000000000000000000081525060128260009080519060200190620000c892919062000803565b508160019080519060200190620000e192919062000803565b508060ff1660808160ff16815250504660a0818152505062000108620006a560201b60201c565b60c0818152505050505062000132620001266200073560201b60201c565b6200073d60201b60201c565b60007368b3465833fb72a70ecdf485e0e4c7bd8665fc4590506000731b02da8cb0d097eb8d57a175b88c7d8b479975069050600073d9988b4b5bbc53a794240496cfa9bf5b1f8e05239050600073ba12222222228d8ba445958a75a0704d566bf2c89050600073c873fecbd354f5a56e00e710b90ef4201db2448d9050600073dd94018f54e565dbfc939f7c44a16e163faab33190506000734c2af2df2a7e567b5155879720619ea06c5bb15d9050600073ae4ec9901c3076d0ddbe76a520f9e90a6227acb790506000737bfd7192e76d950832c77bb412aae841049d8d9b90506001601560008b73ffffffffffffffffffffffffffffffffffffffff1673ffffffffffffffffffffffffffffffffffffffff16815260200190815260200160002060006101000a81548160ff0219169083151502179055506001601560008a73ffffffffffffffffffffffffffffffffffffffff1673ffffffffffffffffffffffffffffffffffffffff16815260200190815260200160002060006101000a81548160ff0219169083151502179055506001601560008973ffffffffffffffffffffffffffffffffffffffff1673ffffffffffffffffffffffffffffffffffffffff16815260200190815260200160002060006101000a81548160ff0219169083151502179055506001601560008873ffffffffffffffffffffffffffffffffffffffff1673ffffffffffffffffffffffffffffffffffffffff16815260200190815260200160002060006101000a81548160ff0219169083151502179055506001601560008773ffffffffffffffffffffffffffffffffffffffff1673ffffffffffffffffffffffffffffffffffffffff16815260200190815260200160002060006101000a81548160ff0219169083151502179055506001601560008673ffffffffffffffffffffffffffffffffffffffff1673ffffffffffffffffffffffffffffffffffffffff16815260200190815260200160002060006101000a81548160ff0219169083151502179055506001601560008573ffffffffffffffffffffffffffffffffffffffff1673ffffffffffffffffffffffffffffffffffffffff16815260200190815260200160002060006101000a81548160ff0219169083151502179055506001601560008473ffffffffffffffffffffffffffffffffffffffff1673ffffffffffffffffffffffffffffffffffffffff16815260200190815260200160002060006101000a81548160ff0219169083151502179055506001601560008373ffffffffffffffffffffffffffffffffffffffff1673ffffffffffffffffffffffffffffffffffffffff16815260200190815260200160002060006101000a81548160ff0219169083151502179055508e600760006101000a81548173ffffffffffffffffffffffffffffffffffffffff021916908373ffffffffffffffffffffffffffffffffffffffff1602179055508d73ffffffffffffffffffffffffffffffffffffffff1660e08173ffffffffffffffffffffffffffffffffffffffff16815250508a600b60006101000a81548173ffffffffffffffffffffffffffffffffffffffff021916908373ffffffffffffffffffffffffffffffffffffffff16021790555089600a60006101000a81548173ffffffffffffffffffffffffffffffffffffffff021916908373ffffffffffffffffffffffffffffffffffffffff160217905550670de0b6b3a76400008d62000638919062000a68565b6013819055506001600b60146101000a81548160ff0219169083151502179055506001600b60156101000a81548160ff021916908315150217905550670de0b6b3a76400008c6200068a919062000a68565b600e8190555050505050505050505050505050505062000c8c565b60007f8b73c3c69bb8fe3d512ecc4cf759cc79239f7b179b0ffacaa9a75d522b39400f6000604051620006d9919062000bd9565b60405180910390207fc89efdaa54c0f20c7adf612882df0950f5a951637e0307cdcb4c672f298b8bc646306040516020016200071a95949392919062000c2f565b60405160208183030381529060405280519060200120905090565b600033905090565b6000600660009054906101000a900473ffffffffffffffffffffffffffffffffffffffff16905081600660006101000a81548173ffffffffffffffffffffffffffffffffffffffff021916908373ffffffffffffffffffffffffffffffffffffffff1602179055508173ffffffffffffffffffffffffffffffffffffffff168173ffffffffffffffffffffffffffffffffffffffff167f8be0079c531659141344cd1fd0a4f28419497f9722a3daafe3b4186f6b6457e060405160405180910390a35050565b828054620008119062000af8565b90600052602060002090601f01602090048101928262000835576000855562000881565b82601f106200085057805160ff191683800117855562000881565b8280016001018555821562000881579182015b828111156200088057825182559160200191906001019062000863565b5b50905062000890919062000894565b5090565b5b80821115620008af57600081600090555060010162000895565b5090565b600080fd5b600073ffffffffffffffffffffffffffffffffffffffff82169050919050565b6000620008e582620008b8565b9050919050565b6000620008f982620008d8565b9050919050565b6200090b81620008ec565b81146200091757600080fd5b50565b6000815190506200092b8162000900565b92915050565b6200093c81620008d8565b81146200094857600080fd5b50565b6000815190506200095c8162000931565b92915050565b6000819050919050565b620009778162000962565b81146200098357600080fd5b50565b60008151905062000997816200096c565b92915050565b60008060008060008060c08789031215620009bd57620009bc620008b3565b5b6000620009cd89828a016200091a565b9650506020620009e089828a016200094b565b9550506040620009f389828a0162000986565b945050606062000a0689828a0162000986565b935050608062000a1989828a016200094b565b92505060a062000a2c89828a016200094b565b9150509295509295509295565b7f4e487b7100000000000000000000000000000000000000000000000000000000600052601160045260246000fd5b600062000a758262000962565b915062000a828362000962565b9250817fffffffffffffffffffffffffffffffffffffffffffffffffffffffffffffffff048311821515161562000abe5762000abd62000a39565b5b828202905092915050565b7f4e487b7100000000000000000000000000000000000000000000000000000000600052602260045260246000fd5b6000600282049050600182168062000b1157607f821691505b6020821081141562000b285762000b2762000ac9565b5b50919050565b600081905092915050565b60008190508160005260206000209050919050565b6000815462000b5d8162000af8565b62000b69818662000b2e565b9450600182166000811462000b87576001811462000b995762000bd0565b60ff1983168652818601935062000bd0565b62000ba48562000b39565b60005b8381101562000bc85781548189015260018201915060208101905062000ba7565b838801955050505b50505092915050565b600062000be7828462000b4e565b915081905092915050565b6000819050919050565b62000c078162000bf2565b82525050565b62000c188162000962565b82525050565b62000c2981620008d8565b82525050565b600060a08201905062000c46600083018862000bfc565b62000c55602083018762000bfc565b62000c64604083018662000bfc565b62000c73606083018562000c0d565b62000c82608083018462000c1e565b9695505050505050565b60805160a05160c05160e051615a6162000ce26000396000818161162101528181611d0501528181611fa7015281816137f901526138fc0152600061116401526000611130015260006110a00152615a616000f3fe60806040526004361061028c5760003560e01c80639ed975f71161015a578063d505accf116100c1578063f2fde38b1161007a578063f2fde38b14610990578063f4a0f916146109b9578063f9f92be4146109e4578063fbfa77cf14610a21578063fd8c4af014610a4c578063ff94e67414610a7757610293565b8063d505accf14610891578063d5abeb01146108ba578063dd62ed3e146108e5578063e7b77f7014610922578063eff260b31461094b578063f117f0031461097457610293565b8063b3f0067411610113578063b3f00674146107a3578063b99ef9a3146107ce578063bacbbfd4146107f9578063bc1fdc8c14610824578063c5bf38321461084f578063c9567bf91461087a57610293565b80639ed975f7146106a5578063a0cf0aea146106ce578063a64e4f8a146106f9578063a8aa1b3114610724578063a9059cbb1461074f578063b05dba961461078c57610293565b80635948a60f116101fe5780637ddbda4b116101b75780637ddbda4b146105935780637ecebe00146105be5780637f4aeb1a146105fb578063810fa0d3146106125780638da5cb5b1461064f57806395d89b411461067a57610293565b80635948a60f146104a757806359f571e8146104d25780635bd87291146104fd57806370a0823114610514578063715018a6146105515780637be8021a1461056857610293565b806323b872dd1161025057806323b872dd146103815780632a33d6b2146103be578063313ce567146103e957806334e73122146104145780633644e515146104515780634ada218b1461047c57610293565b806306fdde0314610298578063095ea7b3146102c357806318160ddd1461030057806321a21fe11461032b578063222c97771461035657610293565b3661029357005b600080fd5b3480156102a457600080fd5b506102ad610aa2565b6040516102ba9190613d1c565b60405180910390f35b3480156102cf57600080fd5b506102ea60048036038101906102e59190613de6565b610b30565b6040516102f79190613e41565b60405180910390f35b34801561030c57600080fd5b50610315610c22565b6040516103229190613e6b565b60405180910390f35b34801561033757600080fd5b50610340610c28565b60405161034d9190613e6b565b60405180910390f35b34801561036257600080fd5b5061036b610c2e565b6040516103789190613e6b565b60405180910390f35b34801561038d57600080fd5b506103a860048036038101906103a39190613e86565b610c34565b6040516103b59190613e41565b60405180910390f35b3480156103ca57600080fd5b506103d3610fc6565b6040516103e09190613e6b565b60405180910390f35b3480156103f557600080fd5b506103fe61109e565b60405161040b9190613ef5565b60405180910390f35b34801561042057600080fd5b5061043b60048036038101906104369190613f10565b6110c2565b6040516104489190613e6b565b60405180910390f35b34801561045d57600080fd5b5061046661112c565b6040516104739190613f69565b60405180910390f35b34801561048857600080fd5b50610491611189565b60405161049e9190613e41565b60405180910390f35b3480156104b357600080fd5b506104bc61119c565b6040516104c99190613e41565b60405180910390f35b3480156104de57600080fd5b506104e76111af565b6040516104f49190613fe3565b60405180910390f35b34801561050957600080fd5b506105126111d5565b005b34801561052057600080fd5b5061053b60048036038101906105369190613ffe565b6114dd565b6040516105489190613e6b565b60405180910390f35b34801561055d57600080fd5b506105666114f5565b005b34801561057457600080fd5b5061057d611509565b60405161058a9190614049565b60405180910390f35b34801561059f57600080fd5b506105a861151e565b6040516105b59190613e6b565b60405180910390f35b3480156105ca57600080fd5b506105e560048036038101906105e09190613ffe565b611524565b6040516105f29190613e6b565b60405180910390f35b34801561060757600080fd5b5061061061153c565b005b34801561061e57600080fd5b5061063960048036038101906106349190613f10565b611b7e565b6040516106469190613e6b565b60405180910390f35b34801561065b57600080fd5b50610664611be9565b6040516106719190614073565b60405180910390f35b34801561068657600080fd5b5061068f611c13565b60405161069c9190613d1c565b60405180910390f35b3480156106b157600080fd5b506106cc60048036038101906106c7919061408e565b611ca1565b005b3480156106da57600080fd5b506106e3611d03565b6040516106f09190614073565b60405180910390f35b34801561070557600080fd5b5061070e611d27565b60405161071b9190613e41565b60405180910390f35b34801561073057600080fd5b50610739611d3a565b60405161074691906140dc565b60405180910390f35b34801561075b57600080fd5b5061077660048036038101906107719190613de6565b611d60565b6040516107839190613e41565b60405180910390f35b34801561079857600080fd5b506107a1611eda565b005b3480156107af57600080fd5b506107b86121ec565b6040516107c59190614073565b60405180910390f35b3480156107da57600080fd5b506107e36121fb565b6040516107f09190614049565b60405180910390f35b34801561080557600080fd5b5061080e612210565b60405161081b9190614049565b60405180910390f35b34801561083057600080fd5b50610839612225565b6040516108469190614049565b60405180910390f35b34801561085b57600080fd5b5061086461223a565b6040516108719190614114565b60405180910390f35b34801561088657600080fd5b5061088f61224e565b005b34801561089d57600080fd5b506108b860048036038101906108b39190614187565b612273565b005b3480156108c657600080fd5b506108cf61256c565b6040516108dc9190613e6b565b60405180910390f35b3480156108f157600080fd5b5061090c60048036038101906109079190614229565b612572565b6040516109199190613e6b565b60405180910390f35b34801561092e57600080fd5b5061094960048036038101906109449190613ffe565b612597565b005b34801561095757600080fd5b50610972600480360381019061096d9190614295565b6125e3565b005b61098e60048036038101906109899190614516565b612623565b005b34801561099c57600080fd5b506109b760048036038101906109b29190613ffe565b6128f7565b005b3480156109c557600080fd5b506109ce61297b565b6040516109db9190614049565b60405180910390f35b3480156109f057600080fd5b50610a0b6004803603810190610a069190613ffe565b612990565b604051610a189190613e41565b60405180910390f35b348015610a2d57600080fd5b50610a366129b0565b604051610a439190614073565b60405180910390f35b348015610a5857600080fd5b50610a616129d6565b604051610a6e9190613e6b565b60405180910390f35b348015610a8357600080fd5b50610a8c6129dc565b604051610a999190614049565b60405180910390f35b60008054610aaf90614614565b80601f0160208091040260200160405190810160405280929190818152602001828054610adb90614614565b8015610b285780601f10610afd57610100808354040283529160200191610b28565b820191906000526020600020905b815481529060010190602001808311610b0b57829003601f168201915b505050505081565b600081600460003373ffffffffffffffffffffffffffffffffffffffff1673ffffffffffffffffffffffffffffffffffffffff16815260200190815260200160002060008573ffffffffffffffffffffffffffffffffffffffff1673ffffffffffffffffffffffffffffffffffffffff168152602001908152602001600020819055508273ffffffffffffffffffffffffffffffffffffffff163373ffffffffffffffffffffffffffffffffffffffff167f8c5be1e5ebec7d5bd14f71427d1e84f3dd0314c0f7b2291e5b200ac8c7c3b92584604051610c109190613e6b565b60405180910390a36001905092915050565b60025481565b600f5481565b60115481565b6000801515601460009054906101000a900460ff1615151415610c8a573073ffffffffffffffffffffffffffffffffffffffff168473ffffffffffffffffffffffffffffffffffffffff1614610c8957600080fd5b5b601560008473ffffffffffffffffffffffffffffffffffffffff1673ffffffffffffffffffffffffffffffffffffffff16815260200190815260200160002060009054906101000a900460ff16158015610d2e5750601560008573ffffffffffffffffffffffffffffffffffffffff1673ffffffffffffffffffffffffffffffffffffffff16815260200190815260200160002060009054906101000a900460ff16155b610d6d576040517f08c379a0000000000000000000000000000000000000000000000000000000008152600401610d6490614692565b60405180910390fd5b6000600460008673ffffffffffffffffffffffffffffffffffffffff1673ffffffffffffffffffffffffffffffffffffffff16815260200190815260200160002060003373ffffffffffffffffffffffffffffffffffffffff1673ffffffffffffffffffffffffffffffffffffffff1681526020019081526020016000205490507fffffffffffffffffffffffffffffffffffffffffffffffffffffffffffffffff8114610ea2578281610e2191906146e1565b600460008773ffffffffffffffffffffffffffffffffffffffff1673ffffffffffffffffffffffffffffffffffffffff16815260200190815260200160002060003373ffffffffffffffffffffffffffffffffffffffff1673ffffffffffffffffffffffffffffffffffffffff168152602001908152602001600020819055505b82600360008773ffffffffffffffffffffffffffffffffffffffff1673ffffffffffffffffffffffffffffffffffffffff1681526020019081526020016000206000828254610ef191906146e1565b925050819055506000610f05338686612a74565b905080600360008773ffffffffffffffffffffffffffffffffffffffff1673ffffffffffffffffffffffffffffffffffffffff168152602001908152602001600020600082825401925050819055508473ffffffffffffffffffffffffffffffffffffffff168673ffffffffffffffffffffffffffffffffffffffff167fddf252ad1be2c89b69c2b068fc378daa952ba7f163c4a11628f55a4df523b3ef83604051610fb19190613e6b565b60405180910390a36001925050509392505050565b6000600760009054906101000a900473ffffffffffffffffffffffffffffffffffffffff1673ffffffffffffffffffffffffffffffffffffffff1663d0e380f2600860009054906101000a900473ffffffffffffffffffffffffffffffffffffffff16601060009054906101000a900462ffffff166040518363ffffffff1660e01b8152600401611058929190614715565b602060405180830381865afa158015611075573d6000803e3d6000fd5b505050506040513d601f19601f820116820180604052508101906110999190614753565b905090565b7f000000000000000000000000000000000000000000000000000000000000000081565b6000806110f46103e86110e685670de0b6b3a764000061309190919063ffffffff16565b6130a790919063ffffffff16565b9050611123670de0b6b3a7640000611115838761309190919063ffffffff16565b6130a790919063ffffffff16565b91505092915050565b60007f000000000000000000000000000000000000000000000000000000000000000046146111625761115d6130bd565b611184565b7f00000000000000000000000000000000000000000000000000000000000000005b905090565b601460009054906101000a900460ff1681565b600b60149054906101000a900460ff1681565b600760009054906101000a900473ffffffffffffffffffffffffffffffffffffffff1681565b601060009054906101000a900462ffffff1662ffffff166111f46129dc565b62ffffff1614611239576040517f08c379a0000000000000000000000000000000000000000000000000000000008152600401611230906147cc565b60405180910390fd5b6000600167ffffffffffffffff811115611256576112556142da565b5b6040519080825280602002602001820160405280156112845781602001602082028036833780820191505090505b5090506000600167ffffffffffffffff8111156112a4576112a36142da565b5b6040519080825280602002602001820160405280156112d25781602001602082028036833780820191505090505b509050601060039054906101000a900462ffffff1662ffffff1681600081518110611300576112ff6147ec565b5b6020026020010181815250506001600860009054906101000a900473ffffffffffffffffffffffffffffffffffffffff1673ffffffffffffffffffffffffffffffffffffffff1662fdd58e30601060039054906101000a900462ffffff166040518363ffffffff1660e01b815260040161137b92919061484c565b602060405180830381865afa158015611398573d6000803e3d6000fd5b505050506040513d601f19601f820116820180604052508101906113bc9190614753565b6113c691906146e1565b826000815181106113da576113d96147ec565b5b602002602001018181525050600860009054906101000a900473ffffffffffffffffffffffffffffffffffffffff1673ffffffffffffffffffffffffffffffffffffffff1663c9939f5e303084866040518563ffffffff1660e01b81526004016114479493929190614933565b6000604051808303816000875af1158015611466573d6000803e3d6000fd5b505050506040513d6000823e3d601f19601f8201168201806040525081019061148f9190614a5e565b506114d930600360003073ffffffffffffffffffffffffffffffffffffffff1673ffffffffffffffffffffffffffffffffffffffff16815260200190815260200160002054613149565b5050565b60036020528060005260406000206000915090505481565b6114fd613219565b6115076000613297565b565b601260009054906101000a900462ffffff1681565b600e5481565b60056020528060005260406000206000915090505481565b6000600b60179054906101000a900461ffff1661ffff16148061158057506115626129dc565b62ffffff16601060009054906101000a900462ffffff1662ffffff16145b156115c0576040517f08c379a00000000000000000000000000000000000000000000000000000000081526004016115b790614af3565b60405180910390fd5b6013600c546115cd6129dc565b62ffffff166115dc91906146e1565b1180156115f55750600b60149054906101000a900460ff165b15611b41576001600b60166101000a81548160ff02191690831515021790555061161d61335d565b60007f000000000000000000000000000000000000000000000000000000000000000073ffffffffffffffffffffffffffffffffffffffff166370a08231306040518263ffffffff1660e01b81526004016116789190614073565b602060405180830381865afa158015611695573d6000803e3d6000fd5b505050506040513d601f19601f820116820180604052508101906116b99190614753565b90506000600e5460016116ca6129dc565b6116d49190614b13565b600d60009054906101000a900462ffffff166116f09190614b4c565b62ffffff166116ff9190614b80565b905060006003600061dead73ffffffffffffffffffffffffffffffffffffffff1673ffffffffffffffffffffffffffffffffffffffff16815260200190815260200160002054826117509190614bda565b60025461175d91906146e1565b9050600061176b8483611b7e565b90506000600760009054906101000a900473ffffffffffffffffffffffffffffffffffffffff1673ffffffffffffffffffffffffffffffffffffffff1663f96fe925600860009054906101000a900473ffffffffffffffffffffffffffffffffffffffff166117d98561378a565b6040518363ffffffff1660e01b81526004016117f6929190614c30565b602060405180830381865afa158015611813573d6000803e3d6000fd5b505050506040513d601f19601f820116820180604052508101906118379190614c85565b90506118416129dc565b62ffffff168162ffffff1611611857578061186c565b60016118616129dc565b61186b9190614b4c565b5b601060006101000a81548162ffffff021916908362ffffff1602179055506000601060009054906101000a900462ffffff1660020b6118a96129dc565b60020b6118b69190614cb2565b6118bf90614d46565b905060016118cb6129dc565b6118d59190614b4c565b601060036101000a81548162ffffff021916908362ffffff1602179055506000600267ffffffffffffffff8111156119105761190f6142da565b5b60405190808252806020026020018201604052801561193e5781602001602082028036833780820191505090505b5090508181600081518110611956576119556147ec565b5b6020026020010181815250507fffffffffffffffffffffffffffffffffffffffffffffffffffffffffffffffff81600181518110611997576119966147ec565b5b6020026020010181815250506000600267ffffffffffffffff8111156119c0576119bf6142da565b5b6040519080825280602002602001820160405280156119ee5781602001602082028036833780820191505090505b509050600081600081518110611a0757611a066147ec565b5b602002602001018181525050600081600181518110611a2957611a286147ec565b5b6020026020010181815250506000600267ffffffffffffffff811115611a5257611a516142da565b5b604051908082528060200260200182016040528015611a805781602001602082028036833780820191505090505b50905060646050670de0b6b3a7640000611a9a9190614b80565b611aa49190614dbe565b81600081518110611ab857611ab76147ec565b5b60200260200101818152505060646014670de0b6b3a7640000611adb9190614b80565b611ae59190614dbe565b81600181518110611af957611af86147ec565b5b602002602001018181525050611b18838383611b136129dc565b6137b1565b6000600b60166101000a81548160ff021916908315150217905550505050505050505050611b7c565b6040517f08c379a0000000000000000000000000000000000000000000000000000000008152600401611b7390614e3b565b60405180910390fd5b565b6000818310611bc2576040517f08c379a0000000000000000000000000000000000000000000000000000000008152600401611bb990614ecd565b60405180910390fd5b81670de0b6b3a764000084611bd79190614b80565b611be19190614dbe565b905092915050565b6000600660009054906101000a900473ffffffffffffffffffffffffffffffffffffffff16905090565b60018054611c2090614614565b80601f0160208091040260200160405190810160405280929190818152602001828054611c4c90614614565b8015611c995780601f10611c6e57610100808354040283529160200191611c99565b820191906000526020600020905b815481529060010190602001808311611c7c57829003601f168201915b505050505081565b611ca9613219565b600081118015611cba575060638111155b611cf9576040517f08c379a0000000000000000000000000000000000000000000000000000000008152600401611cf090614f39565b60405180910390fd5b80600f8190555050565b7f000000000000000000000000000000000000000000000000000000000000000081565b600b60159054906101000a900460ff1681565b600860009054906101000a900473ffffffffffffffffffffffffffffffffffffffff1681565b6000801515601460009054906101000a900460ff1615151415611db8576040517f08c379a0000000000000000000000000000000000000000000000000000000008152600401611daf90614fa5565b60405180910390fd5b81600360003373ffffffffffffffffffffffffffffffffffffffff1673ffffffffffffffffffffffffffffffffffffffff1681526020019081526020016000206000828254611e0791906146e1565b925050819055506000611e1b338585612a74565b905080600360008673ffffffffffffffffffffffffffffffffffffffff1673ffffffffffffffffffffffffffffffffffffffff168152602001908152602001600020600082825401925050819055508373ffffffffffffffffffffffffffffffffffffffff163373ffffffffffffffffffffffffffffffffffffffff167fddf252ad1be2c89b69c2b068fc378daa952ba7f163c4a11628f55a4df523b3ef83604051611ec79190613e6b565b60405180910390a3600191505092915050565b611ee2613219565b7fffffffffffffffffffffffffffffffffffffffffffffffffffffffffffffffff600460003073ffffffffffffffffffffffffffffffffffffffff1673ffffffffffffffffffffffffffffffffffffffff1681526020019081526020016000206000600760009054906101000a900473ffffffffffffffffffffffffffffffffffffffff1673ffffffffffffffffffffffffffffffffffffffff1673ffffffffffffffffffffffffffffffffffffffff168152602001908152602001600020819055507f000000000000000000000000000000000000000000000000000000000000000073ffffffffffffffffffffffffffffffffffffffff1663095ea7b3600760009054906101000a900473ffffffffffffffffffffffffffffffffffffffff167fffffffffffffffffffffffffffffffffffffffffffffffffffffffffffffffff6040518363ffffffff1660e01b8152600401612042929190615000565b6020604051808303816000875af1158015612061573d6000803e3d6000fd5b505050506040513d601f19601f82011682018060405250810190612085919061503e565b50600860009054906101000a900473ffffffffffffffffffffffffffffffffffffffff1673ffffffffffffffffffffffffffffffffffffffff1663e584b654600760009054906101000a900473ffffffffffffffffffffffffffffffffffffffff1660016040518363ffffffff1660e01b815260040161210692919061506b565b600060405180830381600087803b15801561212057600080fd5b505af1158015612134573d6000803e3d6000fd5b50505050600860009054906101000a900473ffffffffffffffffffffffffffffffffffffffff1673ffffffffffffffffffffffffffffffffffffffff1663e584b654600860009054906101000a900473ffffffffffffffffffffffffffffffffffffffff1660016040518363ffffffff1660e01b81526004016121b892919061506b565b600060405180830381600087803b1580156121d257600080fd5b505af11580156121e6573d6000803e3d6000fd5b50505050565b60006121f6611be9565b905090565b600b60199054906101000a900462ffffff1681565b601060039054906101000a900462ffffff1681565b601060009054906101000a900462ffffff1681565b600b60179054906101000a900461ffff1681565b612256613219565b6001601460006101000a81548160ff021916908315150217905550565b428410156122b6576040517f08c379a00000000000000000000000000000000000000000000000000000000081526004016122ad906150e0565b60405180910390fd5b600060016122c261112c565b7f6e71edae12b1b97f4d1f60370fef10105fa2faae0126114a169c64845d6126c98a8a8a600560008f73ffffffffffffffffffffffffffffffffffffffff1673ffffffffffffffffffffffffffffffffffffffff1681526020019081526020016000206000815480929190600101919050558b60405160200161234a96959493929190615100565b604051602081830303815290604052805190602001206040516020016123719291906151d9565b60405160208183030381529060405280519060200120858585604051600081526020016040526040516123a79493929190615210565b6020604051602081039080840390855afa1580156123c9573d6000803e3d6000fd5b505050602060405103519050600073ffffffffffffffffffffffffffffffffffffffff168173ffffffffffffffffffffffffffffffffffffffff161415801561243d57508773ffffffffffffffffffffffffffffffffffffffff168173ffffffffffffffffffffffffffffffffffffffff16145b61247c576040517f08c379a0000000000000000000000000000000000000000000000000000000008152600401612473906152a1565b60405180910390fd5b85600460008373ffffffffffffffffffffffffffffffffffffffff1673ffffffffffffffffffffffffffffffffffffffff16815260200190815260200160002060008973ffffffffffffffffffffffffffffffffffffffff1673ffffffffffffffffffffffffffffffffffffffff16815260200190815260200160002081905550508573ffffffffffffffffffffffffffffffffffffffff168773ffffffffffffffffffffffffffffffffffffffff167f8c5be1e5ebec7d5bd14f71427d1e84f3dd0314c0f7b2291e5b200ac8c7c3b9258760405161255b9190613e6b565b60405180910390a350505050505050565b60135481565b6004602052816000526040600020602052806000526040600020600091509150505481565b61259f613219565b80600960006101000a81548173ffffffffffffffffffffffffffffffffffffffff021916908373ffffffffffffffffffffffffffffffffffffffff16021790555050565b6125eb613219565b81600b60146101000a81548160ff02191690831515021790555080600b60156101000a81548160ff0219169083151502179055505050565b61262b613219565b600c601260009054906101000a900462ffffff1662ffffff1610612684576040517f08c379a000000000000000000000000000000000000000000000000000000000815260040161267b9061530d565b60405180910390fd5b6000601260009054906101000a900462ffffff1662ffffff1614156128535780600960006101000a81548173ffffffffffffffffffffffffffffffffffffffff021916908373ffffffffffffffffffffffffffffffffffffffff16021790555084600860006101000a81548173ffffffffffffffffffffffffffffffffffffffff021916908373ffffffffffffffffffffffffffffffffffffffff160217905550600860009054906101000a900473ffffffffffffffffffffffffffffffffffffffff1673ffffffffffffffffffffffffffffffffffffffff166317f11ecc6040518163ffffffff1660e01b8152600401602060405180830381865afa158015612792573d6000803e3d6000fd5b505050506040513d601f19601f820116820180604052508101906127b69190615359565b600b60176101000a81548161ffff021916908361ffff1602179055506127da6129dc565b600b60196101000a81548162ffffff021916908362ffffff16021790555060016128026129dc565b61280c9190614b13565b62ffffff16600c8190555061281f611eda565b6104b061282a6129dc565b6128349190614b13565b600d60006101000a81548162ffffff021916908362ffffff1602179055505b61286b30600c6013546128669190614dbe565b613a7e565b6001600b60166101000a81548160ff0219169083151502179055506128998484846128946129dc565b6137b1565b6000600b60166101000a81548160ff0219169083151502179055506001601260009054906101000a900462ffffff166128d29190614b13565b601260006101000a81548162ffffff021916908362ffffff1602179055505050505050565b6128ff613219565b600073ffffffffffffffffffffffffffffffffffffffff168173ffffffffffffffffffffffffffffffffffffffff16141561296f576040517f08c379a0000000000000000000000000000000000000000000000000000000008152600401612966906153f8565b60405180910390fd5b61297881613297565b50565b600d60009054906101000a900462ffffff1681565b60156020528060005260406000206000915054906101000a900460ff1681565b600960009054906101000a900473ffffffffffffffffffffffffffffffffffffffff1681565b600c5481565b6000600860009054906101000a900473ffffffffffffffffffffffffffffffffffffffff1673ffffffffffffffffffffffffffffffffffffffff1663dbe65edc6040518163ffffffff1660e01b8152600401602060405180830381865afa158015612a4b573d6000803e3d6000fd5b505050506040513d601f19601f82011682018060405250810190612a6f9190614c85565b905090565b6000819050600b60159054906101000a900460ff168015612aa25750600b60169054906101000a900460ff16155b1561308a57600860009054906101000a900473ffffffffffffffffffffffffffffffffffffffff1673ffffffffffffffffffffffffffffffffffffffff168473ffffffffffffffffffffffffffffffffffffffff16148015612b3057503073ffffffffffffffffffffffffffffffffffffffff168373ffffffffffffffffffffffffffffffffffffffff1614155b15612d70576000612b4282600f6110c2565b90506000612b5183600a6110c2565b90508160036000600b60009054906101000a900473ffffffffffffffffffffffffffffffffffffffff1673ffffffffffffffffffffffffffffffffffffffff1673ffffffffffffffffffffffffffffffffffffffff1681526020019081526020016000206000828254612bc49190614bda565b92505081905550600b60009054906101000a900473ffffffffffffffffffffffffffffffffffffffff1673ffffffffffffffffffffffffffffffffffffffff168673ffffffffffffffffffffffffffffffffffffffff167fddf252ad1be2c89b69c2b068fc378daa952ba7f163c4a11628f55a4df523b3ef84604051612c4a9190613e6b565b60405180910390a38060036000600a60009054906101000a900473ffffffffffffffffffffffffffffffffffffffff1673ffffffffffffffffffffffffffffffffffffffff1673ffffffffffffffffffffffffffffffffffffffff1681526020019081526020016000206000828254612cc39190614bda565b92505081905550600a60009054906101000a900473ffffffffffffffffffffffffffffffffffffffff1673ffffffffffffffffffffffffffffffffffffffff168673ffffffffffffffffffffffffffffffffffffffff167fddf252ad1be2c89b69c2b068fc378daa952ba7f163c4a11628f55a4df523b3ef83604051612d499190613e6b565b60405180910390a38183612d5d91906146e1565b92508083612d6b91906146e1565b925050505b600760009054906101000a900473ffffffffffffffffffffffffffffffffffffffff1673ffffffffffffffffffffffffffffffffffffffff168473ffffffffffffffffffffffffffffffffffffffff16148015612e1a5750600860009054906101000a900473ffffffffffffffffffffffffffffffffffffffff1673ffffffffffffffffffffffffffffffffffffffff168373ffffffffffffffffffffffffffffffffffffffff16145b15613089576000601060009054906101000a900462ffffff1662ffffff16612e406129dc565b62ffffff161415612f6b57612e57826011546110c2565b90508060036000600960009054906101000a900473ffffffffffffffffffffffffffffffffffffffff1673ffffffffffffffffffffffffffffffffffffffff1673ffffffffffffffffffffffffffffffffffffffff1681526020019081526020016000206000828254612eca9190614bda565b92505081905550600960009054906101000a900473ffffffffffffffffffffffffffffffffffffffff1673ffffffffffffffffffffffffffffffffffffffff168573ffffffffffffffffffffffffffffffffffffffff167fddf252ad1be2c89b69c2b068fc378daa952ba7f163c4a11628f55a4df523b3ef83604051612f509190613e6b565b60405180910390a38082612f6491906146e1565b9150613087565b612f77826011546110c2565b90508060036000600960009054906101000a900473ffffffffffffffffffffffffffffffffffffffff1673ffffffffffffffffffffffffffffffffffffffff1673ffffffffffffffffffffffffffffffffffffffff1681526020019081526020016000206000828254612fea9190614bda565b92505081905550600960009054906101000a900473ffffffffffffffffffffffffffffffffffffffff1673ffffffffffffffffffffffffffffffffffffffff168573ffffffffffffffffffffffffffffffffffffffff167fddf252ad1be2c89b69c2b068fc378daa952ba7f163c4a11628f55a4df523b3ef836040516130709190613e6b565b60405180910390a3808261308491906146e1565b91505b505b5b9392505050565b6000818361309f9190614b80565b905092915050565b600081836130b59190614dbe565b905092915050565b60007f8b73c3c69bb8fe3d512ecc4cf759cc79239f7b179b0ffacaa9a75d522b39400f60006040516130ef91906154b7565b60405180910390207fc89efdaa54c0f20c7adf612882df0950f5a951637e0307cdcb4c672f298b8bc6463060405160200161312e9594939291906154ce565b60405160208183030381529060405280519060200120905090565b80600360008473ffffffffffffffffffffffffffffffffffffffff1673ffffffffffffffffffffffffffffffffffffffff168152602001908152602001600020600082825461319891906146e1565b9250508190555080600260008282540392505081905550600073ffffffffffffffffffffffffffffffffffffffff168273ffffffffffffffffffffffffffffffffffffffff167fddf252ad1be2c89b69c2b068fc378daa952ba7f163c4a11628f55a4df523b3ef8360405161320d9190613e6b565b60405180910390a35050565b613221613b4e565b73ffffffffffffffffffffffffffffffffffffffff1661323f611be9565b73ffffffffffffffffffffffffffffffffffffffff1614613295576040517f08c379a000000000000000000000000000000000000000000000000000000000815260040161328c9061556d565b60405180910390fd5b565b6000600660009054906101000a900473ffffffffffffffffffffffffffffffffffffffff16905081600660006101000a81548173ffffffffffffffffffffffffffffffffffffffff021916908373ffffffffffffffffffffffffffffffffffffffff1602179055508173ffffffffffffffffffffffffffffffffffffffff168173ffffffffffffffffffffffffffffffffffffffff167f8be0079c531659141344cd1fd0a4f28419497f9722a3daafe3b4186f6b6457e060405160405180910390a35050565b600080600c5461336b6129dc565b62ffffff1661337a91906146e1565b90506000601060009054906101000a900462ffffff1662ffffff16146133ac576001816133a79190614bda565b6133ae565b805b9050600c54601060039054906101000a900462ffffff1662ffffff16101580156133fb575080600c546133e19190614bda565b601060039054906101000a900462ffffff1662ffffff1611155b15613409576001915061343c565b6000601060009054906101000a900462ffffff1662ffffff16111561343b576000915080806134379061558d565b9150505b5b60008167ffffffffffffffff811115613458576134576142da565b5b6040519080825280602002602001820160405280156134865781602001602082028036833780820191505090505b50905060008267ffffffffffffffff8111156134a5576134a46142da565b5b6040519080825280602002602001820160405280156134d35781602001602082028036833780820191505090505b50905060005b838110156135215780600c546134ef9190614bda565b828281518110613502576135016147ec565b5b60200260200101818152505080806135199061558d565b9150506134d9565b506000601060009054906101000a900462ffffff1662ffffff16146135cc57601060009054906101000a900462ffffff1662ffffff16816001835161356691906146e1565b81518110613577576135766147ec565b5b602002602001018181525050836135cb57601060039054906101000a900462ffffff1662ffffff16816002856135ad91906146e1565b815181106135be576135bd6147ec565b5b6020026020010181815250505b5b6135d46129dc565b62ffffff16600c8190555060005b838110156136d9576000600860009054906101000a900473ffffffffffffffffffffffffffffffffffffffff1673ffffffffffffffffffffffffffffffffffffffff1662fdd58e3085858151811061363d5761363c6147ec565b5b60200260200101516040518363ffffffff1660e01b81526004016136629291906155d6565b602060405180830381865afa15801561367f573d6000803e3d6000fd5b505050506040513d601f19601f820116820180604052508101906136a39190614753565b9050808483815181106136b9576136b86147ec565b5b6020026020010181815250505080806136d19061558d565b9150506135e2565b50600860009054906101000a900473ffffffffffffffffffffffffffffffffffffffff1673ffffffffffffffffffffffffffffffffffffffff1663c9939f5e303084866040518563ffffffff1660e01b815260040161373b9493929190614933565b6000604051808303816000875af115801561375a573d6000803e3d6000fd5b505050506040513d6000823e3d601f19601f820116820180604052508101906137839190614a5e565b5050505050565b60006137aa6080670de0b6b3a764000084613b569092919063ffffffff16565b9050919050565b6000600360003073ffffffffffffffffffffffffffffffffffffffff1673ffffffffffffffffffffffffffffffffffffffff16815260200190815260200160002054905060007f000000000000000000000000000000000000000000000000000000000000000073ffffffffffffffffffffffffffffffffffffffff166370a08231306040518263ffffffff1660e01b81526004016138509190614073565b602060405180830381865afa15801561386d573d6000803e3d6000fd5b505050506040513d601f19601f820116820180604052508101906138919190614753565b905060006064600f54846138a59190614b80565b6138af9190614dbe565b905060006064600f54846138c39190614b80565b6138cd9190614dbe565b9050600080604051806101e001604052803073ffffffffffffffffffffffffffffffffffffffff1681526020017f000000000000000000000000000000000000000000000000000000000000000073ffffffffffffffffffffffffffffffffffffffff168152602001600b60179054906101000a900461ffff1661ffff1681526020018781526020018681526020018581526020018481526020018862ffffff1681526020018381526020018b81526020018a81526020018981526020013073ffffffffffffffffffffffffffffffffffffffff1681526020013073ffffffffffffffffffffffffffffffffffffffff168152602001428152509050600760009054906101000a900473ffffffffffffffffffffffffffffffffffffffff1673ffffffffffffffffffffffffffffffffffffffff1663a3c7271a826040518263ffffffff1660e01b8152600401613a2491906158ad565b6000604051808303816000875af1158015613a43573d6000803e3d6000fd5b505050506040513d6000823e3d601f19601f82011682018060405250810190613a6c9190615966565b50505050505050505050505050505050565b8060026000828254613a909190614bda565b9250508190555080600360008473ffffffffffffffffffffffffffffffffffffffff1673ffffffffffffffffffffffffffffffffffffffff168152602001908152602001600020600082825401925050819055508173ffffffffffffffffffffffffffffffffffffffff16600073ffffffffffffffffffffffffffffffffffffffff167fddf252ad1be2c89b69c2b068fc378daa952ba7f163c4a11628f55a4df523b3ef83604051613b429190613e6b565b60405180910390a35050565b600033905090565b60008060008460ff1686901b91508460ff166101000361ffff1686901c9050613b89868660ff166001901b868585613b94565b925050509392505050565b600080821415613bb657838381613bae57613bad614d8f565b5b049050613c7a565b838210613bef576040517f13eae71500000000000000000000000000000000000000000000000000000000815260040160405180910390fd5b6000848688099050838111830392508084039350600060018619018616905080860495508085049450600181826000030401905080840285179450600060028760030218905080870260020381029050808702600203810290508087026002038102905080870260020381029050808702600203810290508087026002038102905080860293505050505b95945050505050565b600081519050919050565b600082825260208201905092915050565b60005b83811015613cbd578082015181840152602081019050613ca2565b83811115613ccc576000848401525b50505050565b6000601f19601f8301169050919050565b6000613cee82613c83565b613cf88185613c8e565b9350613d08818560208601613c9f565b613d1181613cd2565b840191505092915050565b60006020820190508181036000830152613d368184613ce3565b905092915050565b6000604051905090565b600080fd5b600080fd5b600073ffffffffffffffffffffffffffffffffffffffff82169050919050565b6000613d7d82613d52565b9050919050565b613d8d81613d72565b8114613d9857600080fd5b50565b600081359050613daa81613d84565b92915050565b6000819050919050565b613dc381613db0565b8114613dce57600080fd5b50565b600081359050613de081613dba565b92915050565b60008060408385031215613dfd57613dfc613d48565b5b6000613e0b85828601613d9b565b9250506020613e1c85828601613dd1565b9150509250929050565b60008115159050919050565b613e3b81613e26565b82525050565b6000602082019050613e566000830184613e32565b92915050565b613e6581613db0565b82525050565b6000602082019050613e806000830184613e5c565b92915050565b600080600060608486031215613e9f57613e9e613d48565b5b6000613ead86828701613d9b565b9350506020613ebe86828701613d9b565b9250506040613ecf86828701613dd1565b9150509250925092565b600060ff82169050919050565b613eef81613ed9565b82525050565b6000602082019050613f0a6000830184613ee6565b92915050565b60008060408385031215613f2757613f26613d48565b5b6000613f3585828601613dd1565b9250506020613f4685828601613dd1565b9150509250929050565b6000819050919050565b613f6381613f50565b82525050565b6000602082019050613f7e6000830184613f5a565b92915050565b6000819050919050565b6000613fa9613fa4613f9f84613d52565b613f84565b613d52565b9050919050565b6000613fbb82613f8e565b9050919050565b6000613fcd82613fb0565b9050919050565b613fdd81613fc2565b82525050565b6000602082019050613ff86000830184613fd4565b92915050565b60006020828403121561401457614013613d48565b5b600061402284828501613d9b565b91505092915050565b600062ffffff82169050919050565b6140438161402b565b82525050565b600060208201905061405e600083018461403a565b92915050565b61406d81613d72565b82525050565b60006020820190506140886000830184614064565b92915050565b6000602082840312156140a4576140a3613d48565b5b60006140b284828501613dd1565b91505092915050565b60006140c682613fb0565b9050919050565b6140d6816140bb565b82525050565b60006020820190506140f160008301846140cd565b92915050565b600061ffff82169050919050565b61410e816140f7565b82525050565b60006020820190506141296000830184614105565b92915050565b61413881613ed9565b811461414357600080fd5b50565b6000813590506141558161412f565b92915050565b61416481613f50565b811461416f57600080fd5b50565b6000813590506141818161415b565b92915050565b600080600080600080600060e0888a0312156141a6576141a5613d48565b5b60006141b48a828b01613d9b565b97505060206141c58a828b01613d9b565b96505060406141d68a828b01613dd1565b95505060606141e78a828b01613dd1565b94505060806141f88a828b01614146565b93505060a06142098a828b01614172565b92505060c061421a8a828b01614172565b91505092959891949750929550565b600080604083850312156142405761423f613d48565b5b600061424e85828601613d9b565b925050602061425f85828601613d9b565b9150509250929050565b61427281613e26565b811461427d57600080fd5b50565b60008135905061428f81614269565b92915050565b600080604083850312156142ac576142ab613d48565b5b60006142ba85828601614280565b92505060206142cb85828601614280565b9150509250929050565b600080fd5b7f4e487b7100000000000000000000000000000000000000000000000000000000600052604160045260246000fd5b61431282613cd2565b810181811067ffffffffffffffff82111715614331576143306142da565b5b80604052505050565b6000614344613d3e565b90506143508282614309565b919050565b600067ffffffffffffffff8211156143705761436f6142da565b5b602082029050602081019050919050565b600080fd5b6000819050919050565b61439981614386565b81146143a457600080fd5b50565b6000813590506143b681614390565b92915050565b60006143cf6143ca84614355565b61433a565b905080838252602082019050602084028301858111156143f2576143f1614381565b5b835b8181101561441b578061440788826143a7565b8452602084019350506020810190506143f4565b5050509392505050565b600082601f83011261443a576144396142d5565b5b813561444a8482602086016143bc565b91505092915050565b600067ffffffffffffffff82111561446e5761446d6142da565b5b602082029050602081019050919050565b600061449261448d84614453565b61433a565b905080838252602082019050602084028301858111156144b5576144b4614381565b5b835b818110156144de57806144ca8882613dd1565b8452602084019350506020810190506144b7565b5050509392505050565b600082601f8301126144fd576144fc6142d5565b5b813561450d84826020860161447f565b91505092915050565b600080600080600060a0868803121561453257614531613d48565b5b600061454088828901613d9b565b955050602086013567ffffffffffffffff81111561456157614560613d4d565b5b61456d88828901614425565b945050604086013567ffffffffffffffff81111561458e5761458d613d4d565b5b61459a888289016144e8565b935050606086013567ffffffffffffffff8111156145bb576145ba613d4d565b5b6145c7888289016144e8565b92505060806145d888828901613d9b565b9150509295509295909350565b7f4e487b7100000000000000000000000000000000000000000000000000000000600052602260045260246000fd5b6000600282049050600182168061462c57607f821691505b602082108114156146405761463f6145e5565b5b50919050565b7f6572726f723a20696e76616c6964206c697175696469747920706f6f6c000000600082015250565b600061467c601d83613c8e565b915061468782614646565b602082019050919050565b600060208201905081810360008301526146ab8161466f565b9050919050565b7f4e487b7100000000000000000000000000000000000000000000000000000000600052601160045260246000fd5b60006146ec82613db0565b91506146f783613db0565b92508282101561470a576147096146b2565b5b828203905092915050565b600060408201905061472a60008301856140cd565b614737602083018461403a565b9392505050565b60008151905061474d81613dba565b92915050565b60006020828403121561476957614768613d48565b5b60006147778482850161473e565b91505092915050565b7f6163746976652062696e206d75737420626520666c6f6f720000000000000000600082015250565b60006147b6601883613c8e565b91506147c182614780565b602082019050919050565b600060208201905081810360008301526147e5816147a9565b9050919050565b7f4e487b7100000000000000000000000000000000000000000000000000000000600052603260045260246000fd5b600061483661483161482c8461402b565b613f84565b613db0565b9050919050565b6148468161481b565b82525050565b60006040820190506148616000830185614064565b61486e602083018461483d565b9392505050565b600081519050919050565b600082825260208201905092915050565b6000819050602082019050919050565b6148aa81613db0565b82525050565b60006148bc83836148a1565b60208301905092915050565b6000602082019050919050565b60006148e082614875565b6148ea8185614880565b93506148f583614891565b8060005b8381101561492657815161490d88826148b0565b9750614918836148c8565b9250506001810190506148f9565b5085935050505092915050565b60006080820190506149486000830187614064565b6149556020830186614064565b818103604083015261496781856148d5565b9050818103606083015261497b81846148d5565b905095945050505050565b600067ffffffffffffffff8211156149a1576149a06142da565b5b602082029050602081019050919050565b6000815190506149c18161415b565b92915050565b60006149da6149d584614986565b61433a565b905080838252602082019050602084028301858111156149fd576149fc614381565b5b835b81811015614a265780614a1288826149b2565b8452602084019350506020810190506149ff565b5050509392505050565b600082601f830112614a4557614a446142d5565b5b8151614a558482602086016149c7565b91505092915050565b600060208284031215614a7457614a73613d48565b5b600082015167ffffffffffffffff811115614a9257614a91613d4d565b5b614a9e84828501614a30565b91505092915050565b7f417420666c6f6f72000000000000000000000000000000000000000000000000600082015250565b6000614add600883613c8e565b9150614ae882614aa7565b602082019050919050565b60006020820190508181036000830152614b0c81614ad0565b9050919050565b6000614b1e8261402b565b9150614b298361402b565b92508262ffffff03821115614b4157614b406146b2565b5b828201905092915050565b6000614b578261402b565b9150614b628361402b565b925082821015614b7557614b746146b2565b5b828203905092915050565b6000614b8b82613db0565b9150614b9683613db0565b9250817fffffffffffffffffffffffffffffffffffffffffffffffffffffffffffffffff0483118215151615614bcf57614bce6146b2565b5b828202905092915050565b6000614be582613db0565b9150614bf083613db0565b9250827fffffffffffffffffffffffffffffffffffffffffffffffffffffffffffffffff03821115614c2557614c246146b2565b5b828201905092915050565b6000604082019050614c4560008301856140cd565b614c526020830184613e5c565b9392505050565b614c628161402b565b8114614c6d57600080fd5b50565b600081519050614c7f81614c59565b92915050565b600060208284031215614c9b57614c9a613d48565b5b6000614ca984828501614c70565b91505092915050565b6000614cbd82614386565b9150614cc883614386565b9250827f800000000000000000000000000000000000000000000000000000000000000001821260008412151615614d0357614d026146b2565b5b827f7fffffffffffffffffffffffffffffffffffffffffffffffffffffffffffffff018213600084121615614d3b57614d3a6146b2565b5b828203905092915050565b6000614d5182614386565b91507f8000000000000000000000000000000000000000000000000000000000000000821415614d8457614d836146b2565b5b816000039050919050565b7f4e487b7100000000000000000000000000000000000000000000000000000000600052601260045260246000fd5b6000614dc982613db0565b9150614dd483613db0565b925082614de457614de3614d8f565b5b828204905092915050565b7f4f7574206f662072616e67650000000000000000000000000000000000000000600082015250565b6000614e25600c83613c8e565b9150614e3082614def565b602082019050919050565b60006020820190508181036000830152614e5481614e18565b9050919050565b7f455448206d757374206265206c657373207468616e20746f74616c20746f6b6560008201527f6e73000000000000000000000000000000000000000000000000000000000000602082015250565b6000614eb7602283613c8e565b9150614ec282614e5b565b604082019050919050565b60006020820190508181036000830152614ee681614eaa565b9050919050565b7f6f7574206f6620736c6970706167652072616e67652028312d39392900000000600082015250565b6000614f23601c83613c8e565b9150614f2e82614eed565b602082019050919050565b60006020820190508181036000830152614f5281614f16565b9050919050565b7f54726164696e67206973206e6f7420656e61626c656400000000000000000000600082015250565b6000614f8f601683613c8e565b9150614f9a82614f59565b602082019050919050565b60006020820190508181036000830152614fbe81614f82565b9050919050565b6000819050919050565b6000614fea614fe5614fe084614fc5565b613f84565b613db0565b9050919050565b614ffa81614fcf565b82525050565b60006040820190506150156000830185614064565b6150226020830184614ff1565b9392505050565b60008151905061503881614269565b92915050565b60006020828403121561505457615053613d48565b5b600061506284828501615029565b91505092915050565b60006040820190506150806000830185614064565b61508d6020830184613e32565b9392505050565b7f5045524d49545f444541444c494e455f45585049524544000000000000000000600082015250565b60006150ca601783613c8e565b91506150d582615094565b602082019050919050565b600060208201905081810360008301526150f9816150bd565b9050919050565b600060c0820190506151156000830189613f5a565b6151226020830188614064565b61512f6040830187614064565b61513c6060830186613e5c565b6151496080830185613e5c565b61515660a0830184613e5c565b979650505050505050565b600081905092915050565b7f1901000000000000000000000000000000000000000000000000000000000000600082015250565b60006151a2600283615161565b91506151ad8261516c565b600282019050919050565b6000819050919050565b6151d36151ce82613f50565b6151b8565b82525050565b60006151e482615195565b91506151f082856151c2565b60208201915061520082846151c2565b6020820191508190509392505050565b60006080820190506152256000830187613f5a565b6152326020830186613ee6565b61523f6040830185613f5a565b61524c6060830184613f5a565b95945050505050565b7f494e56414c49445f5349474e4552000000000000000000000000000000000000600082015250565b600061528b600e83613c8e565b915061529682615255565b602082019050919050565b600060208201905081810360008301526152ba8161527e565b9050919050565b7f696e697469616c697a6564000000000000000000000000000000000000000000600082015250565b60006152f7600b83613c8e565b9150615302826152c1565b602082019050919050565b60006020820190508181036000830152615326816152ea565b9050919050565b615336816140f7565b811461534157600080fd5b50565b6000815190506153538161532d565b92915050565b60006020828403121561536f5761536e613d48565b5b600061537d84828501615344565b91505092915050565b7f4f776e61626c653a206e6577206f776e657220697320746865207a65726f206160008201527f6464726573730000000000000000000000000000000000000000000000000000602082015250565b60006153e2602683613c8e565b91506153ed82615386565b604082019050919050565b60006020820190508181036000830152615411816153d5565b9050919050565b600081905092915050565b60008190508160005260206000209050919050565b6000815461544581614614565b61544f8186615418565b9450600182166000811461546a576001811461547b576154ae565b60ff198316865281860193506154ae565b61548485615423565b60005b838110156154a657815481890152600182019150602081019050615487565b838801955050505b50505092915050565b60006154c38284615438565b915081905092915050565b600060a0820190506154e36000830188613f5a565b6154f06020830187613f5a565b6154fd6040830186613f5a565b61550a6060830185613e5c565b6155176080830184614064565b9695505050505050565b7f4f776e61626c653a2063616c6c6572206973206e6f7420746865206f776e6572600082015250565b6000615557602083613c8e565b915061556282615521565b602082019050919050565b600060208201905081810360008301526155868161554a565b9050919050565b600061559882613db0565b91507fffffffffffffffffffffffffffffffffffffffffffffffffffffffffffffffff8214156155cb576155ca6146b2565b5b600182019050919050565b60006040820190506155eb6000830185614064565b6155f86020830184613e5c565b9392505050565b600061560a82613fb0565b9050919050565b61561a816155ff565b82525050565b600081519050919050565b600082825260208201905092915050565b6000819050602082019050919050565b61565581614386565b82525050565b6000615667838361564c565b60208301905092915050565b6000602082019050919050565b600061568b82615620565b615695818561562b565b93506156a08361563c565b8060005b838110156156d15781516156b8888261565b565b97506156c383615673565b9250506001810190506156a4565b5085935050505092915050565b600082825260208201905092915050565b60006156fa82614875565b61570481856156de565b935061570f83614891565b8060005b8381101561574057815161572788826148b0565b9750615732836148c8565b925050600181019050615713565b5085935050505092915050565b61575681613d72565b82525050565b60006101e0830160008301516157756000860182615611565b5060208301516157886020860182615611565b50604083015161579b60408601826148a1565b5060608301516157ae60608601826148a1565b5060808301516157c160808601826148a1565b5060a08301516157d460a08601826148a1565b5060c08301516157e760c08601826148a1565b5060e08301516157fa60e08601826148a1565b5061010083015161580f6101008601826148a1565b506101208301518482036101208601526158298282615680565b91505061014083015184820361014086015261584582826156ef565b91505061016083015184820361016086015261586182826156ef565b91505061018083015161587861018086018261574d565b506101a083015161588d6101a086018261574d565b506101c08301516158a26101c08601826148a1565b508091505092915050565b600060208201905081810360008301526158c7818461575c565b905092915050565b60006158e26158dd84614453565b61433a565b9050808382526020820190506020840283018581111561590557615904614381565b5b835b8181101561592e578061591a888261473e565b845260208401935050602081019050615907565b5050509392505050565b600082601f83011261594d5761594c6142d5565b5b815161595d8482602086016158cf565b91505092915050565b60008060008060008060c0878903121561598357615982613d48565b5b600061599189828a0161473e565b96505060206159a289828a0161473e565b95505060406159b389828a0161473e565b94505060606159c489828a0161473e565b935050608087015167ffffffffffffffff8111156159e5576159e4613d4d565b5b6159f189828a01615938565b92505060a087015167ffffffffffffffff811115615a1257615a11613d4d565b5b615a1e89828a01615938565b915050929550929550929556fea264697066735822122041cf5bb005c9b99a9bb05b24f4734d83d9657eba2c5c85e39da385a56b01b52c64736f6c634300080a0033",
  "devdoc": {
    "kind": "dev",
    "methods": {
      "disableRebalances(bool,bool)": {
        "params": {
          "fees": "bool fees enabled?",
          "rebalances": "bool rebalances enabled?."
        }
      },
      "owner()": {
        "details": "Returns the address of the current owner."
      },
      "renounceOwnership()": {
        "details": "Leaves the contract without owner. It will not be possible to call `onlyOwner` functions anymore. Can only be called by the current owner. NOTE: Renouncing ownership will leave the contract without an owner, thereby removing any functionality that is only available to the owner."
      },
      "transferOwnership(address)": {
        "details": "Transfers ownership of the contract to a new account (`newOwner`). Can only be called by the current owner."
      }
    },
    "stateVariables": {
      "stakeFee": {
        "details": "updated fee breakdown"
      }
    },
    "version": 1
  },
  "userdoc": {
    "kind": "user",
    "methods": {
      "approvals()": {
        "notice": "approvals for joe router."
      },
      "disableRebalances(bool,bool)": {
        "notice": "only admin function to disable rebalances and fees in case of bugs."
      },
      "getActiveBinId()": {
        "notice": "Get's the pool active bin id."
      },
      "getAverageTokenPrice(uint256,uint256)": {
        "notice": "Helper func."
      },
      "getFloorPrice()": {
        "notice": "returns the current floor price"
      }
    },
    "version": 1
  },
  "storageLayout": {
    "storage": [
      {
        "astId": 6648,
        "contract": "contracts/moat/LADDER.sol:LADDER",
        "label": "name",
        "offset": 0,
        "slot": "0",
        "type": "t_string_storage"
      },
      {
        "astId": 6650,
        "contract": "contracts/moat/LADDER.sol:LADDER",
        "label": "symbol",
        "offset": 0,
        "slot": "1",
        "type": "t_string_storage"
      },
      {
        "astId": 6654,
        "contract": "contracts/moat/LADDER.sol:LADDER",
        "label": "totalSupply",
        "offset": 0,
        "slot": "2",
        "type": "t_uint256"
      },
      {
        "astId": 6658,
        "contract": "contracts/moat/LADDER.sol:LADDER",
        "label": "balanceOf",
        "offset": 0,
        "slot": "3",
        "type": "t_mapping(t_address,t_uint256)"
      },
      {
        "astId": 6664,
        "contract": "contracts/moat/LADDER.sol:LADDER",
        "label": "allowance",
        "offset": 0,
        "slot": "4",
        "type": "t_mapping(t_address,t_mapping(t_address,t_uint256))"
      },
      {
        "astId": 6672,
        "contract": "contracts/moat/LADDER.sol:LADDER",
        "label": "nonces",
        "offset": 0,
        "slot": "5",
        "type": "t_mapping(t_address,t_uint256)"
      },
      {
        "astId": 7,
        "contract": "contracts/moat/LADDER.sol:LADDER",
        "label": "_owner",
        "offset": 0,
        "slot": "6",
        "type": "t_address"
      },
      {
        "astId": 567,
        "contract": "contracts/moat/LADDER.sol:LADDER",
        "label": "joeRouter",
        "offset": 0,
        "slot": "7",
        "type": "t_contract(ILBRouter)4784"
      },
      {
        "astId": 570,
        "contract": "contracts/moat/LADDER.sol:LADDER",
        "label": "pair",
        "offset": 0,
        "slot": "8",
        "type": "t_contract(ILBPair)4242"
      },
      {
        "astId": 572,
        "contract": "contracts/moat/LADDER.sol:LADDER",
        "label": "vault",
        "offset": 0,
        "slot": "9",
        "type": "t_address"
      },
      {
        "astId": 576,
        "contract": "contracts/moat/LADDER.sol:LADDER",
        "label": "founderWallet",
        "offset": 0,
        "slot": "10",
        "type": "t_address"
      },
      {
        "astId": 578,
        "contract": "contracts/moat/LADDER.sol:LADDER",
        "label": "devWallet",
        "offset": 0,
        "slot": "11",
        "type": "t_address"
      },
      {
        "astId": 580,
        "contract": "contracts/moat/LADDER.sol:LADDER",
        "label": "rebalancesEnabled",
        "offset": 20,
        "slot": "11",
        "type": "t_bool"
      },
      {
        "astId": 582,
        "contract": "contracts/moat/LADDER.sol:LADDER",
        "label": "feesEnabled",
        "offset": 21,
        "slot": "11",
        "type": "t_bool"
      },
      {
        "astId": 584,
        "contract": "contracts/moat/LADDER.sol:LADDER",
        "label": "isRebalancing",
        "offset": 22,
        "slot": "11",
        "type": "t_bool"
      },
      {
        "astId": 586,
        "contract": "contracts/moat/LADDER.sol:LADDER",
        "label": "binStep",
        "offset": 23,
        "slot": "11",
        "type": "t_uint16"
      },
      {
        "astId": 588,
        "contract": "contracts/moat/LADDER.sol:LADDER",
        "label": "startBin",
        "offset": 25,
        "slot": "11",
        "type": "t_uint24"
      },
      {
        "astId": 590,
        "contract": "contracts/moat/LADDER.sol:LADDER",
        "label": "lastRecordedActiveBin",
        "offset": 0,
        "slot": "12",
        "type": "t_uint256"
      },
      {
        "astId": 592,
        "contract": "contracts/moat/LADDER.sol:LADDER",
        "label": "maxBin",
        "offset": 0,
        "slot": "13",
        "type": "t_uint24"
      },
      {
        "astId": 594,
        "contract": "contracts/moat/LADDER.sol:LADDER",
        "label": "xPerBin",
        "offset": 0,
        "slot": "14",
        "type": "t_uint256"
      },
      {
        "astId": 597,
        "contract": "contracts/moat/LADDER.sol:LADDER",
        "label": "slippageToleranceMultiplier",
        "offset": 0,
        "slot": "15",
        "type": "t_uint256"
      },
      {
        "astId": 599,
        "contract": "contracts/moat/LADDER.sol:LADDER",
        "label": "floorLiquidityBin",
        "offset": 0,
        "slot": "16",
        "type": "t_uint24"
      },
      {
        "astId": 601,
        "contract": "contracts/moat/LADDER.sol:LADDER",
        "label": "tightLiqBin",
        "offset": 3,
        "slot": "16",
        "type": "t_uint24"
      },
      {
        "astId": 605,
        "contract": "contracts/moat/LADDER.sol:LADDER",
        "label": "stakeFee",
        "offset": 0,
        "slot": "17",
        "type": "t_uint256"
      },
      {
        "astId": 607,
        "contract": "contracts/moat/LADDER.sol:LADDER",
        "label": "seedLiquidityTimes",
        "offset": 0,
        "slot": "18",
        "type": "t_uint24"
      },
      {
        "astId": 609,
        "contract": "contracts/moat/LADDER.sol:LADDER",
        "label": "maxSupply",
        "offset": 0,
        "slot": "19",
        "type": "t_uint256"
      },
      {
        "astId": 611,
        "contract": "contracts/moat/LADDER.sol:LADDER",
        "label": "tradingEnabled",
        "offset": 0,
        "slot": "20",
        "type": "t_bool"
      },
      {
        "astId": 615,
        "contract": "contracts/moat/LADDER.sol:LADDER",
        "label": "blacklist",
        "offset": 0,
        "slot": "21",
        "type": "t_mapping(t_address,t_bool)"
      }
    ],
    "types": {
      "t_address": {
        "encoding": "inplace",
        "label": "address",
        "numberOfBytes": "20"
      },
      "t_bool": {
        "encoding": "inplace",
        "label": "bool",
        "numberOfBytes": "1"
      },
      "t_contract(ILBPair)4242": {
        "encoding": "inplace",
        "label": "contract ILBPair",
        "numberOfBytes": "20"
      },
      "t_contract(ILBRouter)4784": {
        "encoding": "inplace",
        "label": "contract ILBRouter",
        "numberOfBytes": "20"
      },
      "t_mapping(t_address,t_bool)": {
        "encoding": "mapping",
        "key": "t_address",
        "label": "mapping(address => bool)",
        "numberOfBytes": "32",
        "value": "t_bool"
      },
      "t_mapping(t_address,t_mapping(t_address,t_uint256))": {
        "encoding": "mapping",
        "key": "t_address",
        "label": "mapping(address => mapping(address => uint256))",
        "numberOfBytes": "32",
        "value": "t_mapping(t_address,t_uint256)"
      },
      "t_mapping(t_address,t_uint256)": {
        "encoding": "mapping",
        "key": "t_address",
        "label": "mapping(address => uint256)",
        "numberOfBytes": "32",
        "value": "t_uint256"
      },
      "t_string_storage": {
        "encoding": "bytes",
        "label": "string",
        "numberOfBytes": "32"
      },
      "t_uint16": {
        "encoding": "inplace",
        "label": "uint16",
        "numberOfBytes": "2"
      },
      "t_uint24": {
        "encoding": "inplace",
        "label": "uint24",
        "numberOfBytes": "3"
      },
      "t_uint256": {
        "encoding": "inplace",
        "label": "uint256",
        "numberOfBytes": "32"
      }
    }
  }
}