{
  "address": "0x94B1991B6C1f8ABfBa55B9D4Db535f5D06a9AaA3",
  "abi": [
    {
      "inputs": [
        {
          "internalType": "contract ILBRouter",
          "name": "joeRouter_",
          "type": "address"
        },
        {
          "internalType": "address",
          "name": "native_",
          "type": "address"
        },
        {
          "internalType": "uint256",
          "name": "maxSupply_",
          "type": "uint256"
        },
        {
          "internalType": "uint256",
          "name": "_xPerBin",
          "type": "uint256"
        },
        {
          "internalType": "address",
          "name": "devWallet_",
          "type": "address"
        },
        {
          "internalType": "address",
          "name": "founderWallet_",
          "type": "address"
        }
      ],
      "stateMutability": "nonpayable",
      "type": "constructor"
    },
    {
      "inputs": [],
      "name": "Uint256x256Math__MulDivOverflow",
      "type": "error"
    },
    {
      "anonymous": false,
      "inputs": [
        {
          "indexed": true,
          "internalType": "address",
          "name": "owner",
          "type": "address"
        },
        {
          "indexed": true,
          "internalType": "address",
          "name": "spender",
          "type": "address"
        },
        {
          "indexed": false,
          "internalType": "uint256",
          "name": "amount",
          "type": "uint256"
        }
      ],
      "name": "Approval",
      "type": "event"
    },
    {
      "anonymous": false,
      "inputs": [
        {
          "indexed": true,
          "internalType": "address",
          "name": "previousOwner",
          "type": "address"
        },
        {
          "indexed": true,
          "internalType": "address",
          "name": "newOwner",
          "type": "address"
        }
      ],
      "name": "OwnershipTransferred",
      "type": "event"
    },
    {
      "anonymous": false,
      "inputs": [
        {
          "indexed": true,
          "internalType": "address",
          "name": "from",
          "type": "address"
        },
        {
          "indexed": true,
          "internalType": "address",
          "name": "to",
          "type": "address"
        },
        {
          "indexed": false,
          "internalType": "uint256",
          "name": "amount",
          "type": "uint256"
        }
      ],
      "name": "Transfer",
      "type": "event"
    },
    {
      "inputs": [],
      "name": "DOMAIN_SEPARATOR",
      "outputs": [
        {
          "internalType": "bytes32",
          "name": "",
          "type": "bytes32"
        }
      ],
      "stateMutability": "view",
      "type": "function"
    },
    {
      "inputs": [],
      "name": "NATIVE",
      "outputs": [
        {
          "internalType": "address",
          "name": "",
          "type": "address"
        }
      ],
      "stateMutability": "view",
      "type": "function"
    },
    {
      "inputs": [
        {
          "internalType": "address",
          "name": "",
          "type": "address"
        },
        {
          "internalType": "address",
          "name": "",
          "type": "address"
        }
      ],
      "name": "allowance",
      "outputs": [
        {
          "internalType": "uint256",
          "name": "",
          "type": "uint256"
        }
      ],
      "stateMutability": "view",
      "type": "function"
    },
    {
      "inputs": [],
      "name": "approvals",
      "outputs": [],
      "stateMutability": "nonpayable",
      "type": "function"
    },
    {
      "inputs": [
        {
          "internalType": "address",
          "name": "spender",
          "type": "address"
        },
        {
          "internalType": "uint256",
          "name": "amount",
          "type": "uint256"
        }
      ],
      "name": "approve",
      "outputs": [
        {
          "internalType": "bool",
          "name": "",
          "type": "bool"
        }
      ],
      "stateMutability": "nonpayable",
      "type": "function"
    },
    {
      "inputs": [
        {
          "internalType": "address",
          "name": "",
          "type": "address"
        }
      ],
      "name": "balanceOf",
      "outputs": [
        {
          "internalType": "uint256",
          "name": "",
          "type": "uint256"
        }
      ],
      "stateMutability": "view",
      "type": "function"
    },
    {
      "inputs": [],
      "name": "binStep",
      "outputs": [
        {
          "internalType": "uint16",
          "name": "",
          "type": "uint16"
        }
      ],
      "stateMutability": "view",
      "type": "function"
    },
    {
      "inputs": [
        {
          "internalType": "address",
          "name": "",
          "type": "address"
        }
      ],
      "name": "blacklist",
      "outputs": [
        {
          "internalType": "bool",
          "name": "",
          "type": "bool"
        }
      ],
      "stateMutability": "view",
      "type": "function"
    },
    {
      "inputs": [],
      "name": "burnFee",
      "outputs": [
        {
          "internalType": "uint256",
          "name": "",
          "type": "uint256"
        }
      ],
      "stateMutability": "view",
      "type": "function"
    },
    {
      "inputs": [
        {
          "internalType": "uint256",
          "name": "amount",
          "type": "uint256"
        },
        {
          "internalType": "uint256",
          "name": "pct",
          "type": "uint256"
        }
      ],
      "name": "calculateFee",
      "outputs": [
        {
          "internalType": "uint256",
          "name": "",
          "type": "uint256"
        }
      ],
      "stateMutability": "pure",
      "type": "function"
    },
    {
      "inputs": [],
      "name": "decimals",
      "outputs": [
        {
          "internalType": "uint8",
          "name": "",
          "type": "uint8"
        }
      ],
      "stateMutability": "view",
      "type": "function"
    },
    {
      "inputs": [
        {
          "internalType": "bool",
          "name": "rebalances",
          "type": "bool"
        },
        {
          "internalType": "bool",
          "name": "fees",
          "type": "bool"
        }
      ],
      "name": "disableRebalances",
      "outputs": [],
      "stateMutability": "nonpayable",
      "type": "function"
    },
    {
      "inputs": [],
      "name": "feeReceiver",
      "outputs": [
        {
          "internalType": "address",
          "name": "",
          "type": "address"
        }
      ],
      "stateMutability": "view",
      "type": "function"
    },
    {
      "inputs": [],
      "name": "feesEnabled",
      "outputs": [
        {
          "internalType": "bool",
          "name": "",
          "type": "bool"
        }
      ],
      "stateMutability": "view",
      "type": "function"
    },
    {
      "inputs": [],
      "name": "floorLiquidityBin",
      "outputs": [
        {
          "internalType": "uint24",
          "name": "",
          "type": "uint24"
        }
      ],
      "stateMutability": "view",
      "type": "function"
    },
    {
      "inputs": [],
      "name": "getActiveBinId",
      "outputs": [
        {
          "internalType": "uint24",
          "name": "",
          "type": "uint24"
        }
      ],
      "stateMutability": "view",
      "type": "function"
    },
    {
      "inputs": [
        {
          "internalType": "uint256",
          "name": "totalETH",
          "type": "uint256"
        },
        {
          "internalType": "uint256",
          "name": "totalTokens",
          "type": "uint256"
        }
      ],
      "name": "getAverageTokenPrice",
      "outputs": [
        {
          "internalType": "uint256",
          "name": "",
          "type": "uint256"
        }
      ],
      "stateMutability": "pure",
      "type": "function"
    },
    {
      "inputs": [],
      "name": "getFloorPrice",
      "outputs": [
        {
          "internalType": "uint256",
          "name": "",
          "type": "uint256"
        }
      ],
      "stateMutability": "view",
      "type": "function"
    },
    {
      "inputs": [
        {
          "internalType": "address",
          "name": "pair_",
          "type": "address"
        },
        {
          "internalType": "int256[]",
          "name": "deltaIds",
          "type": "int256[]"
        },
        {
          "internalType": "uint256[]",
          "name": "distributionX",
          "type": "uint256[]"
        },
        {
          "internalType": "uint256[]",
          "name": "distributionY",
          "type": "uint256[]"
        },
        {
          "internalType": "address",
          "name": "_vault",
          "type": "address"
        }
      ],
      "name": "initialize",
      "outputs": [],
      "stateMutability": "payable",
      "type": "function"
    },
    {
      "inputs": [],
      "name": "joeRouter",
      "outputs": [
        {
          "internalType": "contract ILBRouter",
          "name": "",
          "type": "address"
        }
      ],
      "stateMutability": "view",
      "type": "function"
    },
    {
      "inputs": [],
      "name": "lastRecordedActiveBin",
      "outputs": [
        {
          "internalType": "uint256",
          "name": "",
          "type": "uint256"
        }
      ],
      "stateMutability": "view",
      "type": "function"
    },
    {
      "inputs": [],
      "name": "maxBin",
      "outputs": [
        {
          "internalType": "uint24",
          "name": "",
          "type": "uint24"
        }
      ],
      "stateMutability": "view",
      "type": "function"
    },
    {
      "inputs": [],
      "name": "maxSupply",
      "outputs": [
        {
          "internalType": "uint256",
          "name": "",
          "type": "uint256"
        }
      ],
      "stateMutability": "view",
      "type": "function"
    },
    {
      "inputs": [],
      "name": "name",
      "outputs": [
        {
          "internalType": "string",
          "name": "",
          "type": "string"
        }
      ],
      "stateMutability": "view",
      "type": "function"
    },
    {
      "inputs": [
        {
          "internalType": "address",
          "name": "",
          "type": "address"
        }
      ],
      "name": "nonces",
      "outputs": [
        {
          "internalType": "uint256",
          "name": "",
          "type": "uint256"
        }
      ],
      "stateMutability": "view",
      "type": "function"
    },
    {
      "inputs": [],
      "name": "owner",
      "outputs": [
        {
          "internalType": "address",
          "name": "",
          "type": "address"
        }
      ],
      "stateMutability": "view",
      "type": "function"
    },
    {
      "inputs": [],
      "name": "pair",
      "outputs": [
        {
          "internalType": "contract ILBPair",
          "name": "",
          "type": "address"
        }
      ],
      "stateMutability": "view",
      "type": "function"
    },
    {
      "inputs": [
        {
          "internalType": "address",
          "name": "owner",
          "type": "address"
        },
        {
          "internalType": "address",
          "name": "spender",
          "type": "address"
        },
        {
          "internalType": "uint256",
          "name": "value",
          "type": "uint256"
        },
        {
          "internalType": "uint256",
          "name": "deadline",
          "type": "uint256"
        },
        {
          "internalType": "uint8",
          "name": "v",
          "type": "uint8"
        },
        {
          "internalType": "bytes32",
          "name": "r",
          "type": "bytes32"
        },
        {
          "internalType": "bytes32",
          "name": "s",
          "type": "bytes32"
        }
      ],
      "name": "permit",
      "outputs": [],
      "stateMutability": "nonpayable",
      "type": "function"
    },
    {
      "inputs": [],
      "name": "rebalanceLiquidity",
      "outputs": [],
      "stateMutability": "nonpayable",
      "type": "function"
    },
    {
      "inputs": [],
      "name": "rebalanceMax",
      "outputs": [],
      "stateMutability": "nonpayable",
      "type": "function"
    },
    {
      "inputs": [],
      "name": "rebalancesEnabled",
      "outputs": [
        {
          "internalType": "bool",
          "name": "",
          "type": "bool"
        }
      ],
      "stateMutability": "view",
      "type": "function"
    },
    {
      "inputs": [],
      "name": "renounceOwnership",
      "outputs": [],
      "stateMutability": "nonpayable",
      "type": "function"
    },
    {
      "inputs": [],
      "name": "seedLiquidityTimes",
      "outputs": [
        {
          "internalType": "uint24",
          "name": "",
          "type": "uint24"
        }
      ],
      "stateMutability": "view",
      "type": "function"
    },
    {
      "inputs": [
        {
          "internalType": "address",
          "name": "newVault",
          "type": "address"
        }
      ],
      "name": "setNewVault",
      "outputs": [],
      "stateMutability": "nonpayable",
      "type": "function"
    },
    {
      "inputs": [],
      "name": "stakeFee",
      "outputs": [
        {
          "internalType": "uint256",
          "name": "",
          "type": "uint256"
        }
      ],
      "stateMutability": "view",
      "type": "function"
    },
    {
      "inputs": [],
      "name": "startBin",
      "outputs": [
        {
          "internalType": "uint24",
          "name": "",
          "type": "uint24"
        }
      ],
      "stateMutability": "view",
      "type": "function"
    },
    {
      "inputs": [],
      "name": "symbol",
      "outputs": [
        {
          "internalType": "string",
          "name": "",
          "type": "string"
        }
      ],
      "stateMutability": "view",
      "type": "function"
    },
    {
      "inputs": [],
      "name": "tightLiqBin",
      "outputs": [
        {
          "internalType": "uint24",
          "name": "",
          "type": "uint24"
        }
      ],
      "stateMutability": "view",
      "type": "function"
    },
    {
      "inputs": [],
      "name": "totalSupply",
      "outputs": [
        {
          "internalType": "uint256",
          "name": "",
          "type": "uint256"
        }
      ],
      "stateMutability": "view",
      "type": "function"
    },
    {
      "inputs": [
        {
          "internalType": "address",
          "name": "to",
          "type": "address"
        },
        {
          "internalType": "uint256",
          "name": "amount",
          "type": "uint256"
        }
      ],
      "name": "transfer",
      "outputs": [
        {
          "internalType": "bool",
          "name": "",
          "type": "bool"
        }
      ],
      "stateMutability": "nonpayable",
      "type": "function"
    },
    {
      "inputs": [
        {
          "internalType": "address",
          "name": "from",
          "type": "address"
        },
        {
          "internalType": "address",
          "name": "to",
          "type": "address"
        },
        {
          "internalType": "uint256",
          "name": "amount",
          "type": "uint256"
        }
      ],
      "name": "transferFrom",
      "outputs": [
        {
          "internalType": "bool",
          "name": "",
          "type": "bool"
        }
      ],
      "stateMutability": "nonpayable",
      "type": "function"
    },
    {
      "inputs": [
        {
          "internalType": "address",
          "name": "newOwner",
          "type": "address"
        }
      ],
      "name": "transferOwnership",
      "outputs": [],
      "stateMutability": "nonpayable",
      "type": "function"
    },
    {
      "inputs": [],
      "name": "vault",
      "outputs": [
        {
          "internalType": "address",
          "name": "",
          "type": "address"
        }
      ],
      "stateMutability": "view",
      "type": "function"
    },
    {
      "inputs": [],
      "name": "xPerBin",
      "outputs": [
        {
          "internalType": "uint256",
          "name": "",
          "type": "uint256"
        }
      ],
      "stateMutability": "view",
      "type": "function"
    },
    {
      "stateMutability": "payable",
      "type": "receive"
    }
  ],
  "transactionHash": "0xf7ab2fb9047c91599557e83ea0458e8c8e7d3fd5b0ea4b5b84e8da064a424fbe",
  "args": [
    "0x095EEe81B0eC73797424d67e24adab20D5A5D307",
    "0xe91C134fd945cC0723fd3eB2C0AbEe2188fc33E7",
    30000000,
    100000,
    "0xa9B2870be6c52D36F680c5f26c277cB91Bc12bca",
    "0x5140780e32d84a3ddF2feBE31fFA0741c1a515E1"
  ],
  "numDeployments": 1,
  "solcInputHash": "8dff7e2ad4b77b583586b811477c1941",
  "bytecode": "0x6101006040526028601055603c6011553480156200001c57600080fd5b5060405162006813380380620068138339818101604052810190620000429190620007d5565b6040518060400160405280600481526020017f4d4f4154000000000000000000000000000000000000000000000000000000008152506040518060400160405280600481526020017f4d4f41540000000000000000000000000000000000000000000000000000000081525060128260009080519060200190620000c89291906200063b565b508160019080519060200190620000e19291906200063b565b508060ff1660808160ff16815250504660a0818152505062000108620004dd60201b60201c565b60c0818152505050505062000132620001266200056d60201b60201c565b6200057560201b60201c565b60007368b3465833fb72a70ecdf485e0e4c7bd8665fc4590506000731b02da8cb0d097eb8d57a175b88c7d8b479975069050600073d9988b4b5bbc53a794240496cfa9bf5b1f8e05239050600073ba12222222228d8ba445958a75a0704d566bf2c89050600073c873fecbd354f5a56e00e710b90ef4201db2448d90506001601460008773ffffffffffffffffffffffffffffffffffffffff1673ffffffffffffffffffffffffffffffffffffffff16815260200190815260200160002060006101000a81548160ff0219169083151502179055506001601460008673ffffffffffffffffffffffffffffffffffffffff1673ffffffffffffffffffffffffffffffffffffffff16815260200190815260200160002060006101000a81548160ff0219169083151502179055506001601460008573ffffffffffffffffffffffffffffffffffffffff1673ffffffffffffffffffffffffffffffffffffffff16815260200190815260200160002060006101000a81548160ff0219169083151502179055506001601460008473ffffffffffffffffffffffffffffffffffffffff1673ffffffffffffffffffffffffffffffffffffffff16815260200190815260200160002060006101000a81548160ff0219169083151502179055506001601460008373ffffffffffffffffffffffffffffffffffffffff1673ffffffffffffffffffffffffffffffffffffffff16815260200190815260200160002060006101000a81548160ff0219169083151502179055508a600760006101000a81548173ffffffffffffffffffffffffffffffffffffffff021916908373ffffffffffffffffffffffffffffffffffffffff1602179055508973ffffffffffffffffffffffffffffffffffffffff1660e08173ffffffffffffffffffffffffffffffffffffffff168152505086600b60006101000a81548173ffffffffffffffffffffffffffffffffffffffff021916908373ffffffffffffffffffffffffffffffffffffffff16021790555085600a60006101000a81548173ffffffffffffffffffffffffffffffffffffffff021916908373ffffffffffffffffffffffffffffffffffffffff160217905550670de0b6b3a764000089620004749190620008a0565b6013819055506001600b60146101000a81548160ff0219169083151502179055506001600b60156101000a81548160ff021916908315150217905550670de0b6b3a764000088620004c69190620008a0565b600e81905550505050505050505050505062000ac4565b60007f8b73c3c69bb8fe3d512ecc4cf759cc79239f7b179b0ffacaa9a75d522b39400f600060405162000511919062000a11565b60405180910390207fc89efdaa54c0f20c7adf612882df0950f5a951637e0307cdcb4c672f298b8bc646306040516020016200055295949392919062000a67565b60405160208183030381529060405280519060200120905090565b600033905090565b6000600660009054906101000a900473ffffffffffffffffffffffffffffffffffffffff16905081600660006101000a81548173ffffffffffffffffffffffffffffffffffffffff021916908373ffffffffffffffffffffffffffffffffffffffff1602179055508173ffffffffffffffffffffffffffffffffffffffff168173ffffffffffffffffffffffffffffffffffffffff167f8be0079c531659141344cd1fd0a4f28419497f9722a3daafe3b4186f6b6457e060405160405180910390a35050565b828054620006499062000930565b90600052602060002090601f0160209004810192826200066d5760008555620006b9565b82601f106200068857805160ff1916838001178555620006b9565b82800160010185558215620006b9579182015b82811115620006b85782518255916020019190600101906200069b565b5b509050620006c89190620006cc565b5090565b5b80821115620006e7576000816000905550600101620006cd565b5090565b600080fd5b600073ffffffffffffffffffffffffffffffffffffffff82169050919050565b60006200071d82620006f0565b9050919050565b6000620007318262000710565b9050919050565b620007438162000724565b81146200074f57600080fd5b50565b600081519050620007638162000738565b92915050565b620007748162000710565b81146200078057600080fd5b50565b600081519050620007948162000769565b92915050565b6000819050919050565b620007af816200079a565b8114620007bb57600080fd5b50565b600081519050620007cf81620007a4565b92915050565b60008060008060008060c08789031215620007f557620007f4620006eb565b5b60006200080589828a0162000752565b96505060206200081889828a0162000783565b95505060406200082b89828a01620007be565b94505060606200083e89828a01620007be565b93505060806200085189828a0162000783565b92505060a06200086489828a0162000783565b9150509295509295509295565b7f4e487b7100000000000000000000000000000000000000000000000000000000600052601160045260246000fd5b6000620008ad826200079a565b9150620008ba836200079a565b9250817fffffffffffffffffffffffffffffffffffffffffffffffffffffffffffffffff0483118215151615620008f657620008f562000871565b5b828202905092915050565b7f4e487b7100000000000000000000000000000000000000000000000000000000600052602260045260246000fd5b600060028204905060018216806200094957607f821691505b6020821081141562000960576200095f62000901565b5b50919050565b600081905092915050565b60008190508160005260206000209050919050565b60008154620009958162000930565b620009a1818662000966565b94506001821660008114620009bf5760018114620009d15762000a08565b60ff1983168652818601935062000a08565b620009dc8562000971565b60005b8381101562000a0057815481890152600182019150602081019050620009df565b838801955050505b50505092915050565b600062000a1f828462000986565b915081905092915050565b6000819050919050565b62000a3f8162000a2a565b82525050565b62000a50816200079a565b82525050565b62000a618162000710565b82525050565b600060a08201905062000a7e600083018862000a34565b62000a8d602083018762000a34565b62000a9c604083018662000a34565b62000aab606083018562000a45565b62000aba608083018462000a56565b9695505050505050565b60805160a05160c05160e051615ceb62000b286000396000818161122001528181611ad801528181611f1f015281816120be0152818161230a01528181613b0c0152613c0d0152600061107e0152600061104a01526000610fba0152615ceb6000f3fe60806040526004361061026b5760003560e01c8063a64e4f8a11610144578063dd62ed3e116100b6578063f4a0f9161161007a578063f4a0f91614610902578063f9f92be41461092d578063fbfa77cf1461096a578063fce589d814610995578063fd8c4af0146109c0578063ff94e674146109eb57610272565b8063dd62ed3e1461082e578063e7b77f701461086b578063eff260b314610894578063f117f003146108bd578063f2fde38b146108d957610272565b8063b99ef9a311610108578063b99ef9a31461072e578063bacbbfd414610759578063bc1fdc8c14610784578063c5bf3832146107af578063d505accf146107da578063d5abeb011461080357610272565b8063a64e4f8a14610659578063a8aa1b3114610684578063a9059cbb146106af578063b05dba96146106ec578063b3f006741461070357610272565b806370a08231116101dd5780637f4aeb1a116101a15780637f4aeb1a1461056d578063810fa0d31461058457806389a3e102146105c15780638da5cb5b146105d857806395d89b4114610603578063a0cf0aea1461062e57610272565b806370a0823114610486578063715018a6146104c35780637be8021a146104da5780637ddbda4b146105055780637ecebe001461053057610272565b80632a33d6b21161022f5780632a33d6b214610372578063313ce5671461039d57806334e73122146103c85780633644e515146104055780635948a60f1461043057806359f571e81461045b57610272565b806306fdde0314610277578063095ea7b3146102a257806318160ddd146102df578063222c97771461030a57806323b872dd1461033557610272565b3661027257005b600080fd5b34801561028357600080fd5b5061028c610a16565b604051610299919061402d565b60405180910390f35b3480156102ae57600080fd5b506102c960048036038101906102c491906140f7565b610aa4565b6040516102d69190614152565b60405180910390f35b3480156102eb57600080fd5b506102f4610b96565b604051610301919061417c565b60405180910390f35b34801561031657600080fd5b5061031f610b9c565b60405161032c919061417c565b60405180910390f35b34801561034157600080fd5b5061035c60048036038101906103579190614197565b610ba2565b6040516103699190614152565b60405180910390f35b34801561037e57600080fd5b50610387610ee0565b604051610394919061417c565b60405180910390f35b3480156103a957600080fd5b506103b2610fb8565b6040516103bf9190614206565b60405180910390f35b3480156103d457600080fd5b506103ef60048036038101906103ea9190614221565b610fdc565b6040516103fc919061417c565b60405180910390f35b34801561041157600080fd5b5061041a611046565b604051610427919061427a565b60405180910390f35b34801561043c57600080fd5b506104456110a3565b6040516104529190614152565b60405180910390f35b34801561046757600080fd5b506104706110b6565b60405161047d91906142f4565b60405180910390f35b34801561049257600080fd5b506104ad60048036038101906104a8919061430f565b6110dc565b6040516104ba919061417c565b60405180910390f35b3480156104cf57600080fd5b506104d86110f4565b005b3480156104e657600080fd5b506104ef611108565b6040516104fc919061435a565b60405180910390f35b34801561051157600080fd5b5061051a61111d565b604051610527919061417c565b60405180910390f35b34801561053c57600080fd5b506105576004803603810190610552919061430f565b611123565b604051610564919061417c565b60405180910390f35b34801561057957600080fd5b5061058261113b565b005b34801561059057600080fd5b506105ab60048036038101906105a69190614221565b61177d565b6040516105b8919061417c565b60405180910390f35b3480156105cd57600080fd5b506105d66117e8565b005b3480156105e457600080fd5b506105ed612004565b6040516105fa9190614384565b60405180910390f35b34801561060f57600080fd5b5061061861202e565b604051610625919061402d565b60405180910390f35b34801561063a57600080fd5b506106436120bc565b6040516106509190614384565b60405180910390f35b34801561066557600080fd5b5061066e6120e0565b60405161067b9190614152565b60405180910390f35b34801561069057600080fd5b506106996120f3565b6040516106a691906143c0565b60405180910390f35b3480156106bb57600080fd5b506106d660048036038101906106d191906140f7565b612119565b6040516106e39190614152565b60405180910390f35b3480156106f857600080fd5b5061070161223d565b005b34801561070f57600080fd5b5061071861254f565b6040516107259190614384565b60405180910390f35b34801561073a57600080fd5b5061074361255e565b604051610750919061435a565b60405180910390f35b34801561076557600080fd5b5061076e612573565b60405161077b919061435a565b60405180910390f35b34801561079057600080fd5b50610799612588565b6040516107a6919061435a565b60405180910390f35b3480156107bb57600080fd5b506107c461259d565b6040516107d191906143f8565b60405180910390f35b3480156107e657600080fd5b5061080160048036038101906107fc919061446b565b6125b1565b005b34801561080f57600080fd5b506108186128aa565b604051610825919061417c565b60405180910390f35b34801561083a57600080fd5b506108556004803603810190610850919061450d565b6128b0565b604051610862919061417c565b60405180910390f35b34801561087757600080fd5b50610892600480360381019061088d919061430f565b6128d5565b005b3480156108a057600080fd5b506108bb60048036038101906108b69190614579565b612921565b005b6108d760048036038101906108d291906147fa565b612961565b005b3480156108e557600080fd5b5061090060048036038101906108fb919061430f565b612c35565b005b34801561090e57600080fd5b50610917612cb9565b604051610924919061435a565b60405180910390f35b34801561093957600080fd5b50610954600480360381019061094f919061430f565b612cce565b6040516109619190614152565b60405180910390f35b34801561097657600080fd5b5061097f612cee565b60405161098c9190614384565b60405180910390f35b3480156109a157600080fd5b506109aa612d14565b6040516109b7919061417c565b60405180910390f35b3480156109cc57600080fd5b506109d5612d1a565b6040516109e2919061417c565b60405180910390f35b3480156109f757600080fd5b50610a00612d20565b604051610a0d919061435a565b60405180910390f35b60008054610a23906148f8565b80601f0160208091040260200160405190810160405280929190818152602001828054610a4f906148f8565b8015610a9c5780601f10610a7157610100808354040283529160200191610a9c565b820191906000526020600020905b815481529060010190602001808311610a7f57829003601f168201915b505050505081565b600081600460003373ffffffffffffffffffffffffffffffffffffffff1673ffffffffffffffffffffffffffffffffffffffff16815260200190815260200160002060008573ffffffffffffffffffffffffffffffffffffffff1673ffffffffffffffffffffffffffffffffffffffff168152602001908152602001600020819055508273ffffffffffffffffffffffffffffffffffffffff163373ffffffffffffffffffffffffffffffffffffffff167f8c5be1e5ebec7d5bd14f71427d1e84f3dd0314c0f7b2291e5b200ac8c7c3b92584604051610b84919061417c565b60405180910390a36001905092915050565b60025481565b60115481565b6000601460008473ffffffffffffffffffffffffffffffffffffffff1673ffffffffffffffffffffffffffffffffffffffff16815260200190815260200160002060009054906101000a900460ff16158015610c485750601460008573ffffffffffffffffffffffffffffffffffffffff1673ffffffffffffffffffffffffffffffffffffffff16815260200190815260200160002060009054906101000a900460ff16155b610c87576040517f08c379a0000000000000000000000000000000000000000000000000000000008152600401610c7e90614976565b60405180910390fd5b6000600460008673ffffffffffffffffffffffffffffffffffffffff1673ffffffffffffffffffffffffffffffffffffffff16815260200190815260200160002060003373ffffffffffffffffffffffffffffffffffffffff1673ffffffffffffffffffffffffffffffffffffffff1681526020019081526020016000205490507fffffffffffffffffffffffffffffffffffffffffffffffffffffffffffffffff8114610dbc578281610d3b91906149c5565b600460008773ffffffffffffffffffffffffffffffffffffffff1673ffffffffffffffffffffffffffffffffffffffff16815260200190815260200160002060003373ffffffffffffffffffffffffffffffffffffffff1673ffffffffffffffffffffffffffffffffffffffff168152602001908152602001600020819055505b82600360008773ffffffffffffffffffffffffffffffffffffffff1673ffffffffffffffffffffffffffffffffffffffff1681526020019081526020016000206000828254610e0b91906149c5565b925050819055506000610e1f338686612db8565b905080600360008773ffffffffffffffffffffffffffffffffffffffff1673ffffffffffffffffffffffffffffffffffffffff168152602001908152602001600020600082825401925050819055508473ffffffffffffffffffffffffffffffffffffffff168673ffffffffffffffffffffffffffffffffffffffff167fddf252ad1be2c89b69c2b068fc378daa952ba7f163c4a11628f55a4df523b3ef83604051610ecb919061417c565b60405180910390a36001925050509392505050565b6000600760009054906101000a900473ffffffffffffffffffffffffffffffffffffffff1673ffffffffffffffffffffffffffffffffffffffff1663d0e380f2600860009054906101000a900473ffffffffffffffffffffffffffffffffffffffff16600f60009054906101000a900462ffffff166040518363ffffffff1660e01b8152600401610f729291906149f9565b602060405180830381865afa158015610f8f573d6000803e3d6000fd5b505050506040513d601f19601f82011682018060405250810190610fb39190614a37565b905090565b7f000000000000000000000000000000000000000000000000000000000000000081565b60008061100e6103e861100085670de0b6b3a764000061347490919063ffffffff16565b61348a90919063ffffffff16565b905061103d670de0b6b3a764000061102f838761347490919063ffffffff16565b61348a90919063ffffffff16565b91505092915050565b60007f0000000000000000000000000000000000000000000000000000000000000000461461107c576110776134a0565b61109e565b7f00000000000000000000000000000000000000000000000000000000000000005b905090565b600b60149054906101000a900460ff1681565b600760009054906101000a900473ffffffffffffffffffffffffffffffffffffffff1681565b60036020528060005260406000206000915090505481565b6110fc61352c565b61110660006135aa565b565b601260009054906101000a900462ffffff1681565b600e5481565b60056020528060005260406000206000915090505481565b6000600b60179054906101000a900461ffff1661ffff16148061117f5750611161612d20565b62ffffff16600f60009054906101000a900462ffffff1662ffffff16145b156111bf576040517f08c379a00000000000000000000000000000000000000000000000000000000081526004016111b690614ab0565b60405180910390fd5b6002600c546111cc612d20565b62ffffff166111db91906149c5565b1180156111f45750600b60149054906101000a900460ff165b15611740576001600b60166101000a81548160ff02191690831515021790555061121c613670565b60007f000000000000000000000000000000000000000000000000000000000000000073ffffffffffffffffffffffffffffffffffffffff166370a08231306040518263ffffffff1660e01b81526004016112779190614384565b602060405180830381865afa158015611294573d6000803e3d6000fd5b505050506040513d601f19601f820116820180604052508101906112b89190614a37565b90506000600e5460016112c9612d20565b6112d39190614ad0565b600d60009054906101000a900462ffffff166112ef9190614b09565b62ffffff166112fe9190614b3d565b905060006003600061dead73ffffffffffffffffffffffffffffffffffffffff1673ffffffffffffffffffffffffffffffffffffffff168152602001908152602001600020548261134f9190614b97565b60025461135c91906149c5565b9050600061136a848361177d565b90506000600760009054906101000a900473ffffffffffffffffffffffffffffffffffffffff1673ffffffffffffffffffffffffffffffffffffffff1663f96fe925600860009054906101000a900473ffffffffffffffffffffffffffffffffffffffff166113d885613a9d565b6040518363ffffffff1660e01b81526004016113f5929190614bed565b602060405180830381865afa158015611412573d6000803e3d6000fd5b505050506040513d601f19601f820116820180604052508101906114369190614c42565b9050611440612d20565b62ffffff168162ffffff1611611456578061146b565b6001611460612d20565b61146a9190614b09565b5b600f60006101000a81548162ffffff021916908362ffffff1602179055506000600f60009054906101000a900462ffffff1660020b6114a8612d20565b60020b6114b59190614c6f565b6114be90614d03565b905060016114ca612d20565b6114d49190614b09565b600f60036101000a81548162ffffff021916908362ffffff1602179055506000600267ffffffffffffffff81111561150f5761150e6145be565b5b60405190808252806020026020018201604052801561153d5781602001602082028036833780820191505090505b509050818160008151811061155557611554614d4c565b5b6020026020010181815250507fffffffffffffffffffffffffffffffffffffffffffffffffffffffffffffffff8160018151811061159657611595614d4c565b5b6020026020010181815250506000600267ffffffffffffffff8111156115bf576115be6145be565b5b6040519080825280602002602001820160405280156115ed5781602001602082028036833780820191505090505b50905060008160008151811061160657611605614d4c565b5b60200260200101818152505060008160018151811061162857611627614d4c565b5b6020026020010181815250506000600267ffffffffffffffff811115611651576116506145be565b5b60405190808252806020026020018201604052801561167f5781602001602082028036833780820191505090505b50905060646050670de0b6b3a76400006116999190614b3d565b6116a39190614daa565b816000815181106116b7576116b6614d4c565b5b60200260200101818152505060646014670de0b6b3a76400006116da9190614b3d565b6116e49190614daa565b816001815181106116f8576116f7614d4c565b5b602002602001018181525050611717838383611712612d20565b613ac4565b6000600b60166101000a81548160ff02191690831515021790555050505050505050505061177b565b6040517f08c379a000000000000000000000000000000000000000000000000000000000815260040161177290614e27565b60405180910390fd5b565b60008183106117c1576040517f08c379a00000000000000000000000000000000000000000000000000000000081526004016117b890614eb9565b60405180910390fd5b81670de0b6b3a7640000846117d69190614b3d565b6117e09190614daa565b905092915050565b600d60009054906101000a900462ffffff1662ffffff16611807612d20565b62ffffff161180156118255750600b60149054906101000a900460ff165b611864576040517f08c379a000000000000000000000000000000000000000000000000000000000815260040161185b90614f25565b60405180910390fd5b6001600b60166101000a81548160ff0219169083151502179055506000600167ffffffffffffffff81111561189c5761189b6145be565b5b6040519080825280602002602001820160405280156118ca5781602001602082028036833780820191505090505b5090506000600167ffffffffffffffff8111156118ea576118e96145be565b5b6040519080825280602002602001820160405280156119185781602001602082028036833780820191505090505b509050600f60009054906101000a900462ffffff1662ffffff168160008151811061194657611945614d4c565b5b602002602001018181525050600860009054906101000a900473ffffffffffffffffffffffffffffffffffffffff1673ffffffffffffffffffffffffffffffffffffffff1662fdd58e30836000815181106119a4576119a3614d4c565b5b60200260200101516040518363ffffffff1660e01b81526004016119c9929190614f45565b602060405180830381865afa1580156119e6573d6000803e3d6000fd5b505050506040513d601f19601f82011682018060405250810190611a0a9190614a37565b82600081518110611a1e57611a1d614d4c565b5b602002602001018181525050600860009054906101000a900473ffffffffffffffffffffffffffffffffffffffff1673ffffffffffffffffffffffffffffffffffffffff1663c9939f5e303084866040518563ffffffff1660e01b8152600401611a8b949392919061502c565b6000604051808303816000875af1158015611aaa573d6000803e3d6000fd5b505050506040513d6000823e3d601f19601f82011682018060405250810190611ad39190615157565b5060007f000000000000000000000000000000000000000000000000000000000000000073ffffffffffffffffffffffffffffffffffffffff166370a08231306040518263ffffffff1660e01b8152600401611b2f9190614384565b602060405180830381865afa158015611b4c573d6000803e3d6000fd5b505050506040513d601f19601f82011682018060405250810190611b709190614a37565b90506000806003600061dead73ffffffffffffffffffffffffffffffffffffffff1673ffffffffffffffffffffffffffffffffffffffff1681526020019081526020016000205482611bc29190614b97565b600254611bcf91906149c5565b90506000611bdd848361177d565b90506000600760009054906101000a900473ffffffffffffffffffffffffffffffffffffffff1673ffffffffffffffffffffffffffffffffffffffff1663f96fe925600860009054906101000a900473ffffffffffffffffffffffffffffffffffffffff16611c4b85613a9d565b6040518363ffffffff1660e01b8152600401611c68929190614bed565b602060405180830381865afa158015611c85573d6000803e3d6000fd5b505050506040513d601f19601f82011682018060405250810190611ca99190614c42565b9050600f60009054906101000a900462ffffff1662ffffff168162ffffff1611611d08576040517f08c379a0000000000000000000000000000000000000000000000000000000008152600401611cff906151ec565b60405180910390fd5b611d10612d20565b62ffffff168162ffffff1611611d265780611d3b565b6001611d30612d20565b611d3a9190614b09565b5b600f60006101000a81548162ffffff021916908362ffffff1602179055506000600f60009054906101000a900462ffffff1660020b611d78612d20565b60020b611d859190614c6f565b611d8e90614d03565b90506000600167ffffffffffffffff811115611dad57611dac6145be565b5b604051908082528060200260200182016040528015611ddb5781602001602082028036833780820191505090505b5090508181600081518110611df357611df2614d4c565b5b6020026020010181815250506000600167ffffffffffffffff811115611e1c57611e1b6145be565b5b604051908082528060200260200182016040528015611e4a5781602001602082028036833780820191505090505b509050600081600081518110611e6357611e62614d4c565b5b6020026020010181815250506000600167ffffffffffffffff811115611e8c57611e8b6145be565b5b604051908082528060200260200182016040528015611eba5781602001602082028036833780820191505090505b509050670de0b6b3a764000081600081518110611eda57611ed9614d4c565b5b602002602001018181525050611ef9838383611ef4612d20565b613ac4565b6000600b60166101000a81548160ff021916908315150217905550670de0b6b3a76400007f000000000000000000000000000000000000000000000000000000000000000073ffffffffffffffffffffffffffffffffffffffff166370a08231306040518263ffffffff1660e01b8152600401611f769190614384565b602060405180830381865afa158015611f93573d6000803e3d6000fd5b505050506040513d601f19601f82011682018060405250810190611fb79190614a37565b10611ff7576040517f08c379a0000000000000000000000000000000000000000000000000000000008152600401611fee90615258565b60405180910390fd5b5050505050505050505050565b6000600660009054906101000a900473ffffffffffffffffffffffffffffffffffffffff16905090565b6001805461203b906148f8565b80601f0160208091040260200160405190810160405280929190818152602001828054612067906148f8565b80156120b45780601f10612089576101008083540402835291602001916120b4565b820191906000526020600020905b81548152906001019060200180831161209757829003601f168201915b505050505081565b7f000000000000000000000000000000000000000000000000000000000000000081565b600b60159054906101000a900460ff1681565b600860009054906101000a900473ffffffffffffffffffffffffffffffffffffffff1681565b600081600360003373ffffffffffffffffffffffffffffffffffffffff1673ffffffffffffffffffffffffffffffffffffffff168152602001908152602001600020600082825461216a91906149c5565b92505081905550600061217e338585612db8565b905080600360008673ffffffffffffffffffffffffffffffffffffffff1673ffffffffffffffffffffffffffffffffffffffff168152602001908152602001600020600082825401925050819055508373ffffffffffffffffffffffffffffffffffffffff163373ffffffffffffffffffffffffffffffffffffffff167fddf252ad1be2c89b69c2b068fc378daa952ba7f163c4a11628f55a4df523b3ef8360405161222a919061417c565b60405180910390a3600191505092915050565b61224561352c565b7fffffffffffffffffffffffffffffffffffffffffffffffffffffffffffffffff600460003073ffffffffffffffffffffffffffffffffffffffff1673ffffffffffffffffffffffffffffffffffffffff1681526020019081526020016000206000600760009054906101000a900473ffffffffffffffffffffffffffffffffffffffff1673ffffffffffffffffffffffffffffffffffffffff1673ffffffffffffffffffffffffffffffffffffffff168152602001908152602001600020819055507f000000000000000000000000000000000000000000000000000000000000000073ffffffffffffffffffffffffffffffffffffffff1663095ea7b3600760009054906101000a900473ffffffffffffffffffffffffffffffffffffffff167fffffffffffffffffffffffffffffffffffffffffffffffffffffffffffffffff6040518363ffffffff1660e01b81526004016123a59291906152b3565b6020604051808303816000875af11580156123c4573d6000803e3d6000fd5b505050506040513d601f19601f820116820180604052508101906123e891906152f1565b50600860009054906101000a900473ffffffffffffffffffffffffffffffffffffffff1673ffffffffffffffffffffffffffffffffffffffff1663e584b654600760009054906101000a900473ffffffffffffffffffffffffffffffffffffffff1660016040518363ffffffff1660e01b815260040161246992919061531e565b600060405180830381600087803b15801561248357600080fd5b505af1158015612497573d6000803e3d6000fd5b50505050600860009054906101000a900473ffffffffffffffffffffffffffffffffffffffff1673ffffffffffffffffffffffffffffffffffffffff1663e584b654600860009054906101000a900473ffffffffffffffffffffffffffffffffffffffff1660016040518363ffffffff1660e01b815260040161251b92919061531e565b600060405180830381600087803b15801561253557600080fd5b505af1158015612549573d6000803e3d6000fd5b50505050565b6000612559612004565b905090565b600b60199054906101000a900462ffffff1681565b600f60039054906101000a900462ffffff1681565b600f60009054906101000a900462ffffff1681565b600b60179054906101000a900461ffff1681565b428410156125f4576040517f08c379a00000000000000000000000000000000000000000000000000000000081526004016125eb90615393565b60405180910390fd5b60006001612600611046565b7f6e71edae12b1b97f4d1f60370fef10105fa2faae0126114a169c64845d6126c98a8a8a600560008f73ffffffffffffffffffffffffffffffffffffffff1673ffffffffffffffffffffffffffffffffffffffff1681526020019081526020016000206000815480929190600101919050558b604051602001612688969594939291906153b3565b604051602081830303815290604052805190602001206040516020016126af92919061548c565b60405160208183030381529060405280519060200120858585604051600081526020016040526040516126e594939291906154c3565b6020604051602081039080840390855afa158015612707573d6000803e3d6000fd5b505050602060405103519050600073ffffffffffffffffffffffffffffffffffffffff168173ffffffffffffffffffffffffffffffffffffffff161415801561277b57508773ffffffffffffffffffffffffffffffffffffffff168173ffffffffffffffffffffffffffffffffffffffff16145b6127ba576040517f08c379a00000000000000000000000000000000000000000000000000000000081526004016127b190615554565b60405180910390fd5b85600460008373ffffffffffffffffffffffffffffffffffffffff1673ffffffffffffffffffffffffffffffffffffffff16815260200190815260200160002060008973ffffffffffffffffffffffffffffffffffffffff1673ffffffffffffffffffffffffffffffffffffffff16815260200190815260200160002081905550508573ffffffffffffffffffffffffffffffffffffffff168773ffffffffffffffffffffffffffffffffffffffff167f8c5be1e5ebec7d5bd14f71427d1e84f3dd0314c0f7b2291e5b200ac8c7c3b92587604051612899919061417c565b60405180910390a350505050505050565b60135481565b6004602052816000526040600020602052806000526040600020600091509150505481565b6128dd61352c565b80600960006101000a81548173ffffffffffffffffffffffffffffffffffffffff021916908373ffffffffffffffffffffffffffffffffffffffff16021790555050565b61292961352c565b81600b60146101000a81548160ff02191690831515021790555080600b60156101000a81548160ff0219169083151502179055505050565b61296961352c565b6004601260009054906101000a900462ffffff1662ffffff16106129c2576040517f08c379a00000000000000000000000000000000000000000000000000000000081526004016129b9906155c0565b60405180910390fd5b6000601260009054906101000a900462ffffff1662ffffff161415612b915780600960006101000a81548173ffffffffffffffffffffffffffffffffffffffff021916908373ffffffffffffffffffffffffffffffffffffffff16021790555084600860006101000a81548173ffffffffffffffffffffffffffffffffffffffff021916908373ffffffffffffffffffffffffffffffffffffffff160217905550600860009054906101000a900473ffffffffffffffffffffffffffffffffffffffff1673ffffffffffffffffffffffffffffffffffffffff166317f11ecc6040518163ffffffff1660e01b8152600401602060405180830381865afa158015612ad0573d6000803e3d6000fd5b505050506040513d601f19601f82011682018060405250810190612af4919061560c565b600b60176101000a81548161ffff021916908361ffff160217905550612b18612d20565b600b60196101000a81548162ffffff021916908362ffffff1602179055506001612b40612d20565b612b4a9190614ad0565b62ffffff16600c81905550612b5d61223d565b61012c612b68612d20565b612b729190614ad0565b600d60006101000a81548162ffffff021916908362ffffff1602179055505b612ba9306003601354612ba49190614daa565b613d8f565b6001600b60166101000a81548160ff021916908315150217905550612bd7848484612bd2612d20565b613ac4565b6000600b60166101000a81548160ff0219169083151502179055506001601260009054906101000a900462ffffff16612c109190614ad0565b601260006101000a81548162ffffff021916908362ffffff1602179055505050505050565b612c3d61352c565b600073ffffffffffffffffffffffffffffffffffffffff168173ffffffffffffffffffffffffffffffffffffffff161415612cad576040517f08c379a0000000000000000000000000000000000000000000000000000000008152600401612ca4906156ab565b60405180910390fd5b612cb6816135aa565b50565b600d60009054906101000a900462ffffff1681565b60146020528060005260406000206000915054906101000a900460ff1681565b600960009054906101000a900473ffffffffffffffffffffffffffffffffffffffff1681565b60105481565b600c5481565b6000600860009054906101000a900473ffffffffffffffffffffffffffffffffffffffff1673ffffffffffffffffffffffffffffffffffffffff1663dbe65edc6040518163ffffffff1660e01b8152600401602060405180830381865afa158015612d8f573d6000803e3d6000fd5b505050506040513d601f19601f82011682018060405250810190612db39190614c42565b905090565b6000819050600b60159054906101000a900460ff168015612de65750600b60169054906101000a900460ff16155b1561346d57600860009054906101000a900473ffffffffffffffffffffffffffffffffffffffff1673ffffffffffffffffffffffffffffffffffffffff168473ffffffffffffffffffffffffffffffffffffffff16148015612e7457503073ffffffffffffffffffffffffffffffffffffffff168373ffffffffffffffffffffffffffffffffffffffff1614155b156130b4576000612e8682600f610fdc565b90506000612e9583600a610fdc565b90508160036000600b60009054906101000a900473ffffffffffffffffffffffffffffffffffffffff1673ffffffffffffffffffffffffffffffffffffffff1673ffffffffffffffffffffffffffffffffffffffff1681526020019081526020016000206000828254612f089190614b97565b92505081905550600b60009054906101000a900473ffffffffffffffffffffffffffffffffffffffff1673ffffffffffffffffffffffffffffffffffffffff168673ffffffffffffffffffffffffffffffffffffffff167fddf252ad1be2c89b69c2b068fc378daa952ba7f163c4a11628f55a4df523b3ef84604051612f8e919061417c565b60405180910390a38060036000600a60009054906101000a900473ffffffffffffffffffffffffffffffffffffffff1673ffffffffffffffffffffffffffffffffffffffff1673ffffffffffffffffffffffffffffffffffffffff16815260200190815260200160002060008282546130079190614b97565b92505081905550600a60009054906101000a900473ffffffffffffffffffffffffffffffffffffffff1673ffffffffffffffffffffffffffffffffffffffff168673ffffffffffffffffffffffffffffffffffffffff167fddf252ad1be2c89b69c2b068fc378daa952ba7f163c4a11628f55a4df523b3ef8360405161308d919061417c565b60405180910390a381836130a191906149c5565b925080836130af91906149c5565b925050505b600760009054906101000a900473ffffffffffffffffffffffffffffffffffffffff1673ffffffffffffffffffffffffffffffffffffffff168473ffffffffffffffffffffffffffffffffffffffff1614801561315e5750600860009054906101000a900473ffffffffffffffffffffffffffffffffffffffff1673ffffffffffffffffffffffffffffffffffffffff168373ffffffffffffffffffffffffffffffffffffffff16145b1561346c576000600f60009054906101000a900462ffffff1662ffffff16613184612d20565b62ffffff1614156132bc576131a8826010546011546131a39190614b97565b610fdc565b90508060036000600960009054906101000a900473ffffffffffffffffffffffffffffffffffffffff1673ffffffffffffffffffffffffffffffffffffffff1673ffffffffffffffffffffffffffffffffffffffff168152602001908152602001600020600082825461321b9190614b97565b92505081905550600960009054906101000a900473ffffffffffffffffffffffffffffffffffffffff1673ffffffffffffffffffffffffffffffffffffffff168573ffffffffffffffffffffffffffffffffffffffff167fddf252ad1be2c89b69c2b068fc378daa952ba7f163c4a11628f55a4df523b3ef836040516132a1919061417c565b60405180910390a380826132b591906149c5565b915061346a565b60006132ca83601054610fdc565b90506132d883601154610fdc565b91508160036000600960009054906101000a900473ffffffffffffffffffffffffffffffffffffffff1673ffffffffffffffffffffffffffffffffffffffff1673ffffffffffffffffffffffffffffffffffffffff168152602001908152602001600020600082825461334b9190614b97565b92505081905550600960009054906101000a900473ffffffffffffffffffffffffffffffffffffffff1673ffffffffffffffffffffffffffffffffffffffff168673ffffffffffffffffffffffffffffffffffffffff167fddf252ad1be2c89b69c2b068fc378daa952ba7f163c4a11628f55a4df523b3ef846040516133d1919061417c565b60405180910390a380600260008282540392505081905550600073ffffffffffffffffffffffffffffffffffffffff168673ffffffffffffffffffffffffffffffffffffffff167fddf252ad1be2c89b69c2b068fc378daa952ba7f163c4a11628f55a4df523b3ef83604051613447919061417c565b60405180910390a3808261345b9190614b97565b8361346691906149c5565b9250505b505b5b9392505050565b600081836134829190614b3d565b905092915050565b600081836134989190614daa565b905092915050565b60007f8b73c3c69bb8fe3d512ecc4cf759cc79239f7b179b0ffacaa9a75d522b39400f60006040516134d2919061576a565b60405180910390207fc89efdaa54c0f20c7adf612882df0950f5a951637e0307cdcb4c672f298b8bc64630604051602001613511959493929190615781565b60405160208183030381529060405280519060200120905090565b613534613e5f565b73ffffffffffffffffffffffffffffffffffffffff16613552612004565b73ffffffffffffffffffffffffffffffffffffffff16146135a8576040517f08c379a000000000000000000000000000000000000000000000000000000000815260040161359f90615820565b60405180910390fd5b565b6000600660009054906101000a900473ffffffffffffffffffffffffffffffffffffffff16905081600660006101000a81548173ffffffffffffffffffffffffffffffffffffffff021916908373ffffffffffffffffffffffffffffffffffffffff1602179055508173ffffffffffffffffffffffffffffffffffffffff168173ffffffffffffffffffffffffffffffffffffffff167f8be0079c531659141344cd1fd0a4f28419497f9722a3daafe3b4186f6b6457e060405160405180910390a35050565b600080600c5461367e612d20565b62ffffff1661368d91906149c5565b90506000600f60009054906101000a900462ffffff1662ffffff16146136bf576001816136ba9190614b97565b6136c1565b805b9050600c54600f60039054906101000a900462ffffff1662ffffff161015801561370e575080600c546136f49190614b97565b600f60039054906101000a900462ffffff1662ffffff1611155b1561371c576001915061374f565b6000600f60009054906101000a900462ffffff1662ffffff16111561374e5760009150808061374a90615840565b9150505b5b60008167ffffffffffffffff81111561376b5761376a6145be565b5b6040519080825280602002602001820160405280156137995781602001602082028036833780820191505090505b50905060008267ffffffffffffffff8111156137b8576137b76145be565b5b6040519080825280602002602001820160405280156137e65781602001602082028036833780820191505090505b50905060005b838110156138345780600c546138029190614b97565b82828151811061381557613814614d4c565b5b602002602001018181525050808061382c90615840565b9150506137ec565b506000600f60009054906101000a900462ffffff1662ffffff16146138df57600f60009054906101000a900462ffffff1662ffffff16816001835161387991906149c5565b8151811061388a57613889614d4c565b5b602002602001018181525050836138de57600f60039054906101000a900462ffffff1662ffffff16816002856138c091906149c5565b815181106138d1576138d0614d4c565b5b6020026020010181815250505b5b6138e7612d20565b62ffffff16600c8190555060005b838110156139ec576000600860009054906101000a900473ffffffffffffffffffffffffffffffffffffffff1673ffffffffffffffffffffffffffffffffffffffff1662fdd58e308585815181106139505761394f614d4c565b5b60200260200101516040518363ffffffff1660e01b8152600401613975929190614f45565b602060405180830381865afa158015613992573d6000803e3d6000fd5b505050506040513d601f19601f820116820180604052508101906139b69190614a37565b9050808483815181106139cc576139cb614d4c565b5b6020026020010181815250505080806139e490615840565b9150506138f5565b50600860009054906101000a900473ffffffffffffffffffffffffffffffffffffffff1673ffffffffffffffffffffffffffffffffffffffff1663c9939f5e303084866040518563ffffffff1660e01b8152600401613a4e949392919061502c565b6000604051808303816000875af1158015613a6d573d6000803e3d6000fd5b505050506040513d6000823e3d601f19601f82011682018060405250810190613a969190615157565b5050505050565b6000613abd6080670de0b6b3a764000084613e679092919063ffffffff16565b9050919050565b6000600360003073ffffffffffffffffffffffffffffffffffffffff1673ffffffffffffffffffffffffffffffffffffffff16815260200190815260200160002054905060007f000000000000000000000000000000000000000000000000000000000000000073ffffffffffffffffffffffffffffffffffffffff166370a08231306040518263ffffffff1660e01b8152600401613b639190614384565b602060405180830381865afa158015613b80573d6000803e3d6000fd5b505050506040513d601f19601f82011682018060405250810190613ba49190614a37565b905060006064606384613bb79190614b3d565b613bc19190614daa565b905060006064606384613bd49190614b3d565b613bde9190614daa565b9050600080604051806101e001604052803073ffffffffffffffffffffffffffffffffffffffff1681526020017f000000000000000000000000000000000000000000000000000000000000000073ffffffffffffffffffffffffffffffffffffffff168152602001600b60179054906101000a900461ffff1661ffff1681526020018781526020018681526020018581526020018481526020018862ffffff1681526020018381526020018b81526020018a81526020018981526020013073ffffffffffffffffffffffffffffffffffffffff1681526020013073ffffffffffffffffffffffffffffffffffffffff168152602001428152509050600760009054906101000a900473ffffffffffffffffffffffffffffffffffffffff1673ffffffffffffffffffffffffffffffffffffffff1663a3c7271a826040518263ffffffff1660e01b8152600401613d359190615b37565b6000604051808303816000875af1158015613d54573d6000803e3d6000fd5b505050506040513d6000823e3d601f19601f82011682018060405250810190613d7d9190615bf0565b50505050505050505050505050505050565b8060026000828254613da19190614b97565b9250508190555080600360008473ffffffffffffffffffffffffffffffffffffffff1673ffffffffffffffffffffffffffffffffffffffff168152602001908152602001600020600082825401925050819055508173ffffffffffffffffffffffffffffffffffffffff16600073ffffffffffffffffffffffffffffffffffffffff167fddf252ad1be2c89b69c2b068fc378daa952ba7f163c4a11628f55a4df523b3ef83604051613e53919061417c565b60405180910390a35050565b600033905090565b60008060008460ff1686901b91508460ff166101000361ffff1686901c9050613e9a868660ff166001901b868585613ea5565b925050509392505050565b600080821415613ec757838381613ebf57613ebe614d7b565b5b049050613f8b565b838210613f00576040517f13eae71500000000000000000000000000000000000000000000000000000000815260040160405180910390fd5b6000848688099050838111830392508084039350600060018619018616905080860495508085049450600181826000030401905080840285179450600060028760030218905080870260020381029050808702600203810290508087026002038102905080870260020381029050808702600203810290508087026002038102905080860293505050505b95945050505050565b600081519050919050565b600082825260208201905092915050565b60005b83811015613fce578082015181840152602081019050613fb3565b83811115613fdd576000848401525b50505050565b6000601f19601f8301169050919050565b6000613fff82613f94565b6140098185613f9f565b9350614019818560208601613fb0565b61402281613fe3565b840191505092915050565b600060208201905081810360008301526140478184613ff4565b905092915050565b6000604051905090565b600080fd5b600080fd5b600073ffffffffffffffffffffffffffffffffffffffff82169050919050565b600061408e82614063565b9050919050565b61409e81614083565b81146140a957600080fd5b50565b6000813590506140bb81614095565b92915050565b6000819050919050565b6140d4816140c1565b81146140df57600080fd5b50565b6000813590506140f1816140cb565b92915050565b6000806040838503121561410e5761410d614059565b5b600061411c858286016140ac565b925050602061412d858286016140e2565b9150509250929050565b60008115159050919050565b61414c81614137565b82525050565b60006020820190506141676000830184614143565b92915050565b614176816140c1565b82525050565b6000602082019050614191600083018461416d565b92915050565b6000806000606084860312156141b0576141af614059565b5b60006141be868287016140ac565b93505060206141cf868287016140ac565b92505060406141e0868287016140e2565b9150509250925092565b600060ff82169050919050565b614200816141ea565b82525050565b600060208201905061421b60008301846141f7565b92915050565b6000806040838503121561423857614237614059565b5b6000614246858286016140e2565b9250506020614257858286016140e2565b9150509250929050565b6000819050919050565b61427481614261565b82525050565b600060208201905061428f600083018461426b565b92915050565b6000819050919050565b60006142ba6142b56142b084614063565b614295565b614063565b9050919050565b60006142cc8261429f565b9050919050565b60006142de826142c1565b9050919050565b6142ee816142d3565b82525050565b600060208201905061430960008301846142e5565b92915050565b60006020828403121561432557614324614059565b5b6000614333848285016140ac565b91505092915050565b600062ffffff82169050919050565b6143548161433c565b82525050565b600060208201905061436f600083018461434b565b92915050565b61437e81614083565b82525050565b60006020820190506143996000830184614375565b92915050565b60006143aa826142c1565b9050919050565b6143ba8161439f565b82525050565b60006020820190506143d560008301846143b1565b92915050565b600061ffff82169050919050565b6143f2816143db565b82525050565b600060208201905061440d60008301846143e9565b92915050565b61441c816141ea565b811461442757600080fd5b50565b60008135905061443981614413565b92915050565b61444881614261565b811461445357600080fd5b50565b6000813590506144658161443f565b92915050565b600080600080600080600060e0888a03121561448a57614489614059565b5b60006144988a828b016140ac565b97505060206144a98a828b016140ac565b96505060406144ba8a828b016140e2565b95505060606144cb8a828b016140e2565b94505060806144dc8a828b0161442a565b93505060a06144ed8a828b01614456565b92505060c06144fe8a828b01614456565b91505092959891949750929550565b6000806040838503121561452457614523614059565b5b6000614532858286016140ac565b9250506020614543858286016140ac565b9150509250929050565b61455681614137565b811461456157600080fd5b50565b6000813590506145738161454d565b92915050565b600080604083850312156145905761458f614059565b5b600061459e85828601614564565b92505060206145af85828601614564565b9150509250929050565b600080fd5b7f4e487b7100000000000000000000000000000000000000000000000000000000600052604160045260246000fd5b6145f682613fe3565b810181811067ffffffffffffffff82111715614615576146146145be565b5b80604052505050565b600061462861404f565b905061463482826145ed565b919050565b600067ffffffffffffffff821115614654576146536145be565b5b602082029050602081019050919050565b600080fd5b6000819050919050565b61467d8161466a565b811461468857600080fd5b50565b60008135905061469a81614674565b92915050565b60006146b36146ae84614639565b61461e565b905080838252602082019050602084028301858111156146d6576146d5614665565b5b835b818110156146ff57806146eb888261468b565b8452602084019350506020810190506146d8565b5050509392505050565b600082601f83011261471e5761471d6145b9565b5b813561472e8482602086016146a0565b91505092915050565b600067ffffffffffffffff821115614752576147516145be565b5b602082029050602081019050919050565b600061477661477184614737565b61461e565b9050808382526020820190506020840283018581111561479957614798614665565b5b835b818110156147c257806147ae88826140e2565b84526020840193505060208101905061479b565b5050509392505050565b600082601f8301126147e1576147e06145b9565b5b81356147f1848260208601614763565b91505092915050565b600080600080600060a0868803121561481657614815614059565b5b6000614824888289016140ac565b955050602086013567ffffffffffffffff8111156148455761484461405e565b5b61485188828901614709565b945050604086013567ffffffffffffffff8111156148725761487161405e565b5b61487e888289016147cc565b935050606086013567ffffffffffffffff81111561489f5761489e61405e565b5b6148ab888289016147cc565b92505060806148bc888289016140ac565b9150509295509295909350565b7f4e487b7100000000000000000000000000000000000000000000000000000000600052602260045260246000fd5b6000600282049050600182168061491057607f821691505b60208210811415614924576149236148c9565b5b50919050565b7f6572726f723a20696e76616c6964206c697175696469747920706f6f6c000000600082015250565b6000614960601d83613f9f565b915061496b8261492a565b602082019050919050565b6000602082019050818103600083015261498f81614953565b9050919050565b7f4e487b7100000000000000000000000000000000000000000000000000000000600052601160045260246000fd5b60006149d0826140c1565b91506149db836140c1565b9250828210156149ee576149ed614996565b5b828203905092915050565b6000604082019050614a0e60008301856143b1565b614a1b602083018461434b565b9392505050565b600081519050614a31816140cb565b92915050565b600060208284031215614a4d57614a4c614059565b5b6000614a5b84828501614a22565b91505092915050565b7f417420666c6f6f72000000000000000000000000000000000000000000000000600082015250565b6000614a9a600883613f9f565b9150614aa582614a64565b602082019050919050565b60006020820190508181036000830152614ac981614a8d565b9050919050565b6000614adb8261433c565b9150614ae68361433c565b92508262ffffff03821115614afe57614afd614996565b5b828201905092915050565b6000614b148261433c565b9150614b1f8361433c565b925082821015614b3257614b31614996565b5b828203905092915050565b6000614b48826140c1565b9150614b53836140c1565b9250817fffffffffffffffffffffffffffffffffffffffffffffffffffffffffffffffff0483118215151615614b8c57614b8b614996565b5b828202905092915050565b6000614ba2826140c1565b9150614bad836140c1565b9250827fffffffffffffffffffffffffffffffffffffffffffffffffffffffffffffffff03821115614be257614be1614996565b5b828201905092915050565b6000604082019050614c0260008301856143b1565b614c0f602083018461416d565b9392505050565b614c1f8161433c565b8114614c2a57600080fd5b50565b600081519050614c3c81614c16565b92915050565b600060208284031215614c5857614c57614059565b5b6000614c6684828501614c2d565b91505092915050565b6000614c7a8261466a565b9150614c858361466a565b9250827f800000000000000000000000000000000000000000000000000000000000000001821260008412151615614cc057614cbf614996565b5b827f7fffffffffffffffffffffffffffffffffffffffffffffffffffffffffffffff018213600084121615614cf857614cf7614996565b5b828203905092915050565b6000614d0e8261466a565b91507f8000000000000000000000000000000000000000000000000000000000000000821415614d4157614d40614996565b5b816000039050919050565b7f4e487b7100000000000000000000000000000000000000000000000000000000600052603260045260246000fd5b7f4e487b7100000000000000000000000000000000000000000000000000000000600052601260045260246000fd5b6000614db5826140c1565b9150614dc0836140c1565b925082614dd057614dcf614d7b565b5b828204905092915050565b7f4f7574206f662072616e67650000000000000000000000000000000000000000600082015250565b6000614e11600c83613f9f565b9150614e1c82614ddb565b602082019050919050565b60006020820190508181036000830152614e4081614e04565b9050919050565b7f455448206d757374206265206c657373207468616e20746f74616c20746f6b6560008201527f6e73000000000000000000000000000000000000000000000000000000000000602082015250565b6000614ea3602283613f9f565b9150614eae82614e47565b604082019050919050565b60006020820190508181036000830152614ed281614e96565b9050919050565b7f4e6f742074686572652079657400000000000000000000000000000000000000600082015250565b6000614f0f600d83613f9f565b9150614f1a82614ed9565b602082019050919050565b60006020820190508181036000830152614f3e81614f02565b9050919050565b6000604082019050614f5a6000830185614375565b614f67602083018461416d565b9392505050565b600081519050919050565b600082825260208201905092915050565b6000819050602082019050919050565b614fa3816140c1565b82525050565b6000614fb58383614f9a565b60208301905092915050565b6000602082019050919050565b6000614fd982614f6e565b614fe38185614f79565b9350614fee83614f8a565b8060005b8381101561501f5781516150068882614fa9565b975061501183614fc1565b925050600181019050614ff2565b5085935050505092915050565b60006080820190506150416000830187614375565b61504e6020830186614375565b81810360408301526150608185614fce565b905081810360608301526150748184614fce565b905095945050505050565b600067ffffffffffffffff82111561509a576150996145be565b5b602082029050602081019050919050565b6000815190506150ba8161443f565b92915050565b60006150d36150ce8461507f565b61461e565b905080838252602082019050602084028301858111156150f6576150f5614665565b5b835b8181101561511f578061510b88826150ab565b8452602084019350506020810190506150f8565b5050509392505050565b600082601f83011261513e5761513d6145b9565b5b815161514e8482602086016150c0565b91505092915050565b60006020828403121561516d5761516c614059565b5b600082015167ffffffffffffffff81111561518b5761518a61405e565b5b61519784828501615129565b91505092915050565b7f6e6f000000000000000000000000000000000000000000000000000000000000600082015250565b60006151d6600283613f9f565b91506151e1826151a0565b602082019050919050565b60006020820190508181036000830152615205816151c9565b9050919050565b7f6661696c65640000000000000000000000000000000000000000000000000000600082015250565b6000615242600683613f9f565b915061524d8261520c565b602082019050919050565b6000602082019050818103600083015261527181615235565b9050919050565b6000819050919050565b600061529d61529861529384615278565b614295565b6140c1565b9050919050565b6152ad81615282565b82525050565b60006040820190506152c86000830185614375565b6152d560208301846152a4565b9392505050565b6000815190506152eb8161454d565b92915050565b60006020828403121561530757615306614059565b5b6000615315848285016152dc565b91505092915050565b60006040820190506153336000830185614375565b6153406020830184614143565b9392505050565b7f5045524d49545f444541444c494e455f45585049524544000000000000000000600082015250565b600061537d601783613f9f565b915061538882615347565b602082019050919050565b600060208201905081810360008301526153ac81615370565b9050919050565b600060c0820190506153c8600083018961426b565b6153d56020830188614375565b6153e26040830187614375565b6153ef606083018661416d565b6153fc608083018561416d565b61540960a083018461416d565b979650505050505050565b600081905092915050565b7f1901000000000000000000000000000000000000000000000000000000000000600082015250565b6000615455600283615414565b91506154608261541f565b600282019050919050565b6000819050919050565b61548661548182614261565b61546b565b82525050565b600061549782615448565b91506154a38285615475565b6020820191506154b38284615475565b6020820191508190509392505050565b60006080820190506154d8600083018761426b565b6154e560208301866141f7565b6154f2604083018561426b565b6154ff606083018461426b565b95945050505050565b7f494e56414c49445f5349474e4552000000000000000000000000000000000000600082015250565b600061553e600e83613f9f565b915061554982615508565b602082019050919050565b6000602082019050818103600083015261556d81615531565b9050919050565b7f696e697469616c697a6564000000000000000000000000000000000000000000600082015250565b60006155aa600b83613f9f565b91506155b582615574565b602082019050919050565b600060208201905081810360008301526155d98161559d565b9050919050565b6155e9816143db565b81146155f457600080fd5b50565b600081519050615606816155e0565b92915050565b60006020828403121561562257615621614059565b5b6000615630848285016155f7565b91505092915050565b7f4f776e61626c653a206e6577206f776e657220697320746865207a65726f206160008201527f6464726573730000000000000000000000000000000000000000000000000000602082015250565b6000615695602683613f9f565b91506156a082615639565b604082019050919050565b600060208201905081810360008301526156c481615688565b9050919050565b600081905092915050565b60008190508160005260206000209050919050565b600081546156f8816148f8565b61570281866156cb565b9450600182166000811461571d576001811461572e57615761565b60ff19831686528186019350615761565b615737856156d6565b60005b838110156157595781548189015260018201915060208101905061573a565b838801955050505b50505092915050565b600061577682846156eb565b915081905092915050565b600060a082019050615796600083018861426b565b6157a3602083018761426b565b6157b0604083018661426b565b6157bd606083018561416d565b6157ca6080830184614375565b9695505050505050565b7f4f776e61626c653a2063616c6c6572206973206e6f7420746865206f776e6572600082015250565b600061580a602083613f9f565b9150615815826157d4565b602082019050919050565b60006020820190508181036000830152615839816157fd565b9050919050565b600061584b826140c1565b91507fffffffffffffffffffffffffffffffffffffffffffffffffffffffffffffffff82141561587e5761587d614996565b5b600182019050919050565b6000615894826142c1565b9050919050565b6158a481615889565b82525050565b600081519050919050565b600082825260208201905092915050565b6000819050602082019050919050565b6158df8161466a565b82525050565b60006158f183836158d6565b60208301905092915050565b6000602082019050919050565b6000615915826158aa565b61591f81856158b5565b935061592a836158c6565b8060005b8381101561595b57815161594288826158e5565b975061594d836158fd565b92505060018101905061592e565b5085935050505092915050565b600082825260208201905092915050565b600061598482614f6e565b61598e8185615968565b935061599983614f8a565b8060005b838110156159ca5781516159b18882614fa9565b97506159bc83614fc1565b92505060018101905061599d565b5085935050505092915050565b6159e081614083565b82525050565b60006101e0830160008301516159ff600086018261589b565b506020830151615a12602086018261589b565b506040830151615a256040860182614f9a565b506060830151615a386060860182614f9a565b506080830151615a4b6080860182614f9a565b5060a0830151615a5e60a0860182614f9a565b5060c0830151615a7160c0860182614f9a565b5060e0830151615a8460e0860182614f9a565b50610100830151615a99610100860182614f9a565b50610120830151848203610120860152615ab3828261590a565b915050610140830151848203610140860152615acf8282615979565b915050610160830151848203610160860152615aeb8282615979565b915050610180830151615b026101808601826159d7565b506101a0830151615b176101a08601826159d7565b506101c0830151615b2c6101c0860182614f9a565b508091505092915050565b60006020820190508181036000830152615b5181846159e6565b905092915050565b6000615b6c615b6784614737565b61461e565b90508083825260208201905060208402830185811115615b8f57615b8e614665565b5b835b81811015615bb85780615ba48882614a22565b845260208401935050602081019050615b91565b5050509392505050565b600082601f830112615bd757615bd66145b9565b5b8151615be7848260208601615b59565b91505092915050565b60008060008060008060c08789031215615c0d57615c0c614059565b5b6000615c1b89828a01614a22565b9650506020615c2c89828a01614a22565b9550506040615c3d89828a01614a22565b9450506060615c4e89828a01614a22565b935050608087015167ffffffffffffffff811115615c6f57615c6e61405e565b5b615c7b89828a01615bc2565b92505060a087015167ffffffffffffffff811115615c9c57615c9b61405e565b5b615ca889828a01615bc2565b915050929550929550929556fea26469706673582212203cb2c82697cdfdce4ae05153f74af74344090fa9bacce16f532aa1263c8d4b7664736f6c634300080a0033",
  "devdoc": {
    "kind": "dev",
    "methods": {
      "disableRebalances(bool,bool)": {
        "params": {
          "fees": "bool fees enabled?",
          "rebalances": "bool rebalances enabled?."
        }
      },
      "owner()": {
        "details": "Returns the address of the current owner."
      },
      "renounceOwnership()": {
        "details": "Leaves the contract without owner. It will not be possible to call `onlyOwner` functions anymore. Can only be called by the current owner. NOTE: Renouncing ownership will leave the contract without an owner, thereby removing any functionality that is only available to the owner."
      },
      "transferOwnership(address)": {
        "details": "Transfers ownership of the contract to a new account (`newOwner`). Can only be called by the current owner."
      }
    },
    "stateVariables": {
      "burnFee": {
        "details": "updated fee breakdown"
      }
    },
    "version": 1
  },
  "userdoc": {
    "kind": "user",
    "methods": {
      "approvals()": {
        "notice": "approvals for joe router."
      },
      "disableRebalances(bool,bool)": {
        "notice": "only admin function to disable rebalances and fees in case of bugs."
      },
      "getActiveBinId()": {
        "notice": "Get's the pool active bin id."
      },
      "getAverageTokenPrice(uint256,uint256)": {
        "notice": "Helper func."
      },
      "getFloorPrice()": {
        "notice": "returns the current floor price"
      }
    },
    "version": 1
  },
  "storageLayout": {
    "storage": [
      {
        "astId": 6775,
        "contract": "contracts/moat/MOAT.sol:MOAT",
        "label": "name",
        "offset": 0,
        "slot": "0",
        "type": "t_string_storage"
      },
      {
        "astId": 6777,
        "contract": "contracts/moat/MOAT.sol:MOAT",
        "label": "symbol",
        "offset": 0,
        "slot": "1",
        "type": "t_string_storage"
      },
      {
        "astId": 6781,
        "contract": "contracts/moat/MOAT.sol:MOAT",
        "label": "totalSupply",
        "offset": 0,
        "slot": "2",
        "type": "t_uint256"
      },
      {
        "astId": 6785,
        "contract": "contracts/moat/MOAT.sol:MOAT",
        "label": "balanceOf",
        "offset": 0,
        "slot": "3",
        "type": "t_mapping(t_address,t_uint256)"
      },
      {
        "astId": 6791,
        "contract": "contracts/moat/MOAT.sol:MOAT",
        "label": "allowance",
        "offset": 0,
        "slot": "4",
        "type": "t_mapping(t_address,t_mapping(t_address,t_uint256))"
      },
      {
        "astId": 6799,
        "contract": "contracts/moat/MOAT.sol:MOAT",
        "label": "nonces",
        "offset": 0,
        "slot": "5",
        "type": "t_mapping(t_address,t_uint256)"
      },
      {
        "astId": 7,
        "contract": "contracts/moat/MOAT.sol:MOAT",
        "label": "_owner",
        "offset": 0,
        "slot": "6",
        "type": "t_address"
      },
      {
        "astId": 567,
        "contract": "contracts/moat/MOAT.sol:MOAT",
        "label": "joeRouter",
        "offset": 0,
        "slot": "7",
        "type": "t_contract(ILBRouter)4866"
      },
      {
        "astId": 570,
        "contract": "contracts/moat/MOAT.sol:MOAT",
        "label": "pair",
        "offset": 0,
        "slot": "8",
        "type": "t_contract(ILBPair)4324"
      },
      {
        "astId": 572,
        "contract": "contracts/moat/MOAT.sol:MOAT",
        "label": "vault",
        "offset": 0,
        "slot": "9",
        "type": "t_address"
      },
      {
        "astId": 576,
        "contract": "contracts/moat/MOAT.sol:MOAT",
        "label": "founderWallet",
        "offset": 0,
        "slot": "10",
        "type": "t_address"
      },
      {
        "astId": 578,
        "contract": "contracts/moat/MOAT.sol:MOAT",
        "label": "devWallet",
        "offset": 0,
        "slot": "11",
        "type": "t_address"
      },
      {
        "astId": 580,
        "contract": "contracts/moat/MOAT.sol:MOAT",
        "label": "rebalancesEnabled",
        "offset": 20,
        "slot": "11",
        "type": "t_bool"
      },
      {
        "astId": 582,
        "contract": "contracts/moat/MOAT.sol:MOAT",
        "label": "feesEnabled",
        "offset": 21,
        "slot": "11",
        "type": "t_bool"
      },
      {
        "astId": 584,
        "contract": "contracts/moat/MOAT.sol:MOAT",
        "label": "isRebalancing",
        "offset": 22,
        "slot": "11",
        "type": "t_bool"
      },
      {
        "astId": 586,
        "contract": "contracts/moat/MOAT.sol:MOAT",
        "label": "binStep",
        "offset": 23,
        "slot": "11",
        "type": "t_uint16"
      },
      {
        "astId": 588,
        "contract": "contracts/moat/MOAT.sol:MOAT",
        "label": "startBin",
        "offset": 25,
        "slot": "11",
        "type": "t_uint24"
      },
      {
        "astId": 590,
        "contract": "contracts/moat/MOAT.sol:MOAT",
        "label": "lastRecordedActiveBin",
        "offset": 0,
        "slot": "12",
        "type": "t_uint256"
      },
      {
        "astId": 592,
        "contract": "contracts/moat/MOAT.sol:MOAT",
        "label": "maxBin",
        "offset": 0,
        "slot": "13",
        "type": "t_uint24"
      },
      {
        "astId": 594,
        "contract": "contracts/moat/MOAT.sol:MOAT",
        "label": "xPerBin",
        "offset": 0,
        "slot": "14",
        "type": "t_uint256"
      },
      {
        "astId": 596,
        "contract": "contracts/moat/MOAT.sol:MOAT",
        "label": "floorLiquidityBin",
        "offset": 0,
        "slot": "15",
        "type": "t_uint24"
      },
      {
        "astId": 598,
        "contract": "contracts/moat/MOAT.sol:MOAT",
        "label": "tightLiqBin",
        "offset": 3,
        "slot": "15",
        "type": "t_uint24"
      },
      {
        "astId": 602,
        "contract": "contracts/moat/MOAT.sol:MOAT",
        "label": "burnFee",
        "offset": 0,
        "slot": "16",
        "type": "t_uint256"
      },
      {
        "astId": 605,
        "contract": "contracts/moat/MOAT.sol:MOAT",
        "label": "stakeFee",
        "offset": 0,
        "slot": "17",
        "type": "t_uint256"
      },
      {
        "astId": 607,
        "contract": "contracts/moat/MOAT.sol:MOAT",
        "label": "seedLiquidityTimes",
        "offset": 0,
        "slot": "18",
        "type": "t_uint24"
      },
      {
        "astId": 609,
        "contract": "contracts/moat/MOAT.sol:MOAT",
        "label": "maxSupply",
        "offset": 0,
        "slot": "19",
        "type": "t_uint256"
      },
      {
        "astId": 613,
        "contract": "contracts/moat/MOAT.sol:MOAT",
        "label": "blacklist",
        "offset": 0,
        "slot": "20",
        "type": "t_mapping(t_address,t_bool)"
      }
    ],
    "types": {
      "t_address": {
        "encoding": "inplace",
        "label": "address",
        "numberOfBytes": "20"
      },
      "t_bool": {
        "encoding": "inplace",
        "label": "bool",
        "numberOfBytes": "1"
      },
      "t_contract(ILBPair)4324": {
        "encoding": "inplace",
        "label": "contract ILBPair",
        "numberOfBytes": "20"
      },
      "t_contract(ILBRouter)4866": {
        "encoding": "inplace",
        "label": "contract ILBRouter",
        "numberOfBytes": "20"
      },
      "t_mapping(t_address,t_bool)": {
        "encoding": "mapping",
        "key": "t_address",
        "label": "mapping(address => bool)",
        "numberOfBytes": "32",
        "value": "t_bool"
      },
      "t_mapping(t_address,t_mapping(t_address,t_uint256))": {
        "encoding": "mapping",
        "key": "t_address",
        "label": "mapping(address => mapping(address => uint256))",
        "numberOfBytes": "32",
        "value": "t_mapping(t_address,t_uint256)"
      },
      "t_mapping(t_address,t_uint256)": {
        "encoding": "mapping",
        "key": "t_address",
        "label": "mapping(address => uint256)",
        "numberOfBytes": "32",
        "value": "t_uint256"
      },
      "t_string_storage": {
        "encoding": "bytes",
        "label": "string",
        "numberOfBytes": "32"
      },
      "t_uint16": {
        "encoding": "inplace",
        "label": "uint16",
        "numberOfBytes": "2"
      },
      "t_uint24": {
        "encoding": "inplace",
        "label": "uint24",
        "numberOfBytes": "3"
      },
      "t_uint256": {
        "encoding": "inplace",
        "label": "uint256",
        "numberOfBytes": "32"
      }
    }
  }
}